{
	"contracts/andrei/projects/auction.sol": {
		"Auction": {
			"abi": [
				{
					"inputs": [
						{
							"internalType": "address",
							"name": "eoa",
							"type": "address"
						}
					],
					"stateMutability": "nonpayable",
					"type": "constructor"
				},
				{
					"inputs": [],
					"name": "auctionState",
					"outputs": [
						{
							"internalType": "enum Auction.State",
							"name": "",
							"type": "uint8"
						}
					],
					"stateMutability": "view",
					"type": "function"
				},
				{
					"inputs": [
						{
							"internalType": "address",
							"name": "",
							"type": "address"
						}
					],
					"name": "bids",
					"outputs": [
						{
							"internalType": "uint256",
							"name": "",
							"type": "uint256"
						}
					],
					"stateMutability": "view",
					"type": "function"
				},
				{
					"inputs": [],
					"name": "cancelAuction",
					"outputs": [],
					"stateMutability": "nonpayable",
					"type": "function"
				},
				{
					"inputs": [],
					"name": "endBlock",
					"outputs": [
						{
							"internalType": "uint256",
							"name": "",
							"type": "uint256"
						}
					],
					"stateMutability": "view",
					"type": "function"
				},
				{
					"inputs": [],
					"name": "finalizeAuction",
					"outputs": [],
					"stateMutability": "nonpayable",
					"type": "function"
				},
				{
					"inputs": [],
					"name": "highestBidder",
					"outputs": [
						{
							"internalType": "address payable",
							"name": "",
							"type": "address"
						}
					],
					"stateMutability": "view",
					"type": "function"
				},
				{
					"inputs": [],
					"name": "highestBindingBid",
					"outputs": [
						{
							"internalType": "uint256",
							"name": "",
							"type": "uint256"
						}
					],
					"stateMutability": "view",
					"type": "function"
				},
				{
					"inputs": [],
					"name": "ipfsHash",
					"outputs": [
						{
							"internalType": "string",
							"name": "",
							"type": "string"
						}
					],
					"stateMutability": "view",
					"type": "function"
				},
				{
					"inputs": [],
					"name": "owner",
					"outputs": [
						{
							"internalType": "address payable",
							"name": "",
							"type": "address"
						}
					],
					"stateMutability": "view",
					"type": "function"
				},
				{
					"inputs": [],
					"name": "placeBid",
					"outputs": [],
					"stateMutability": "payable",
					"type": "function"
				},
				{
					"inputs": [],
					"name": "startBlock",
					"outputs": [
						{
							"internalType": "uint256",
							"name": "",
							"type": "uint256"
						}
					],
					"stateMutability": "view",
					"type": "function"
				}
			],
			"devdoc": {
				"kind": "dev",
				"methods": {},
				"version": 1
			},
			"evm": {
				"assembly": "    /* \"contracts/andrei/projects/auction.sol\":262:3112  contract Auction {... */\n  mstore(0x40, 0x80)\n    /* \"contracts/andrei/projects/auction.sol\":634:875  constructor(address eoa){... */\n  callvalue\n  dup1\n  iszero\n  tag_1\n  jumpi\n  0x00\n  dup1\n  revert\ntag_1:\n  pop\n  mload(0x40)\n  sub(codesize, bytecodeSize)\n  dup1\n  bytecodeSize\n  dup4\n  codecopy\n  dup2\n  dup2\n  add\n  0x40\n  mstore\n  dup2\n  add\n  swap1\n  tag_2\n  swap2\n  swap1\n  tag_3\n  jump\t// in\ntag_2:\n    /* \"contracts/andrei/projects/auction.sol\":684:687  eoa */\n  dup1\n    /* \"contracts/andrei/projects/auction.sol\":668:673  owner */\n  0x00\n  dup1\n    /* \"contracts/andrei/projects/auction.sol\":668:688  owner = payable(eoa) */\n  0x0100\n  exp\n  dup2\n  sload\n  dup2\n  0xffffffffffffffffffffffffffffffffffffffff\n  mul\n  not\n  and\n  swap1\n  dup4\n  0xffffffffffffffffffffffffffffffffffffffff\n  and\n  mul\n  or\n  swap1\n  sstore\n  pop\n    /* \"contracts/andrei/projects/auction.sol\":713:726  State.Running */\n  0x01\n    /* \"contracts/andrei/projects/auction.sol\":698:710  auctionState */\n  0x04\n  0x00\n    /* \"contracts/andrei/projects/auction.sol\":698:726  auctionState = State.Running */\n  0x0100\n  exp\n  dup2\n  sload\n  dup2\n  0xff\n  mul\n  not\n  and\n  swap1\n  dup4\n  0x03\n  dup2\n  gt\n  iszero\n  tag_6\n  jumpi\n  tag_7\n  tag_8\n  jump\t// in\ntag_7:\ntag_6:\n  mul\n  or\n  swap1\n  sstore\n  pop\n    /* \"contracts/andrei/projects/auction.sol\":749:761  block.number */\n  number\n    /* \"contracts/andrei/projects/auction.sol\":736:746  startBlock */\n  0x01\n    /* \"contracts/andrei/projects/auction.sol\":736:761  startBlock = block.number */\n  dup2\n  swap1\n  sstore\n  pop\n    /* \"contracts/andrei/projects/auction.sol\":797:802  40320 */\n  0x9d80\n    /* \"contracts/andrei/projects/auction.sol\":782:794  block.number */\n  number\n    /* \"contracts/andrei/projects/auction.sol\":782:802  block.number + 40320 */\n  tag_9\n  swap2\n  swap1\n  tag_10\n  jump\t// in\ntag_9:\n    /* \"contracts/andrei/projects/auction.sol\":771:779  endBlock */\n  0x02\n    /* \"contracts/andrei/projects/auction.sol\":771:802  endBlock = block.number + 40320 */\n  dup2\n  swap1\n  sstore\n  pop\n    /* \"contracts/andrei/projects/auction.sol\":812:825  ipfsHash = \"\" */\n  mload(0x40)\n  dup1\n  0x20\n  add\n  0x40\n  mstore\n  dup1\n  0x00\n  dup2\n  mstore\n  pop\n    /* \"contracts/andrei/projects/auction.sol\":812:820  ipfsHash */\n  0x03\n    /* \"contracts/andrei/projects/auction.sol\":812:825  ipfsHash = \"\" */\n  swap1\n  dup2\n  tag_11\n  swap2\n  swap1\n  tag_12\n  jump\t// in\ntag_11:\n  pop\n    /* \"contracts/andrei/projects/auction.sol\":850:868  100000000000000000 */\n  0x016345785d8a0000\n    /* \"contracts/andrei/projects/auction.sol\":835:847  bidIncrement */\n  0x08\n    /* \"contracts/andrei/projects/auction.sol\":835:868  bidIncrement = 100000000000000000 */\n  dup2\n  swap1\n  sstore\n  pop\n    /* \"contracts/andrei/projects/auction.sol\":634:875  constructor(address eoa){... */\n  pop\n    /* \"contracts/andrei/projects/auction.sol\":262:3112  contract Auction {... */\n  jump(tag_13)\n    /* \"#utility.yul\":88:205   */\ntag_15:\n    /* \"#utility.yul\":197:198   */\n  0x00\n    /* \"#utility.yul\":194:195   */\n  dup1\n    /* \"#utility.yul\":187:199   */\n  revert\n    /* \"#utility.yul\":334:460   */\ntag_17:\n    /* \"#utility.yul\":371:378   */\n  0x00\n    /* \"#utility.yul\":411:453   */\n  0xffffffffffffffffffffffffffffffffffffffff\n    /* \"#utility.yul\":404:409   */\n  dup3\n    /* \"#utility.yul\":400:454   */\n  and\n    /* \"#utility.yul\":389:454   */\n  swap1\n  pop\n    /* \"#utility.yul\":334:460   */\n  swap2\n  swap1\n  pop\n  jump\t// out\n    /* \"#utility.yul\":466:562   */\ntag_18:\n    /* \"#utility.yul\":503:510   */\n  0x00\n    /* \"#utility.yul\":532:556   */\n  tag_48\n    /* \"#utility.yul\":550:555   */\n  dup3\n    /* \"#utility.yul\":532:556   */\n  tag_17\n  jump\t// in\ntag_48:\n    /* \"#utility.yul\":521:556   */\n  swap1\n  pop\n    /* \"#utility.yul\":466:562   */\n  swap2\n  swap1\n  pop\n  jump\t// out\n    /* \"#utility.yul\":568:690   */\ntag_19:\n    /* \"#utility.yul\":641:665   */\n  tag_50\n    /* \"#utility.yul\":659:664   */\n  dup2\n    /* \"#utility.yul\":641:665   */\n  tag_18\n  jump\t// in\ntag_50:\n    /* \"#utility.yul\":634:639   */\n  dup2\n    /* \"#utility.yul\":631:666   */\n  eq\n    /* \"#utility.yul\":621:684   */\n  tag_51\n  jumpi\n    /* \"#utility.yul\":680:681   */\n  0x00\n    /* \"#utility.yul\":677:678   */\n  dup1\n    /* \"#utility.yul\":670:682   */\n  revert\n    /* \"#utility.yul\":621:684   */\ntag_51:\n    /* \"#utility.yul\":568:690   */\n  pop\n  jump\t// out\n    /* \"#utility.yul\":696:839   */\ntag_20:\n    /* \"#utility.yul\":753:758   */\n  0x00\n    /* \"#utility.yul\":784:790   */\n  dup2\n    /* \"#utility.yul\":778:791   */\n  mload\n    /* \"#utility.yul\":769:791   */\n  swap1\n  pop\n    /* \"#utility.yul\":800:833   */\n  tag_53\n    /* \"#utility.yul\":827:832   */\n  dup2\n    /* \"#utility.yul\":800:833   */\n  tag_19\n  jump\t// in\ntag_53:\n    /* \"#utility.yul\":696:839   */\n  swap3\n  swap2\n  pop\n  pop\n  jump\t// out\n    /* \"#utility.yul\":845:1196   */\ntag_3:\n    /* \"#utility.yul\":915:921   */\n  0x00\n    /* \"#utility.yul\":964:966   */\n  0x20\n    /* \"#utility.yul\":952:961   */\n  dup3\n    /* \"#utility.yul\":943:950   */\n  dup5\n    /* \"#utility.yul\":939:962   */\n  sub\n    /* \"#utility.yul\":935:967   */\n  slt\n    /* \"#utility.yul\":932:1051   */\n  iszero\n  tag_55\n  jumpi\n    /* \"#utility.yul\":970:1049   */\n  tag_56\n  tag_15\n  jump\t// in\ntag_56:\n    /* \"#utility.yul\":932:1051   */\ntag_55:\n    /* \"#utility.yul\":1090:1091   */\n  0x00\n    /* \"#utility.yul\":1115:1179   */\n  tag_57\n    /* \"#utility.yul\":1171:1178   */\n  dup5\n    /* \"#utility.yul\":1162:1168   */\n  dup3\n    /* \"#utility.yul\":1151:1160   */\n  dup6\n    /* \"#utility.yul\":1147:1169   */\n  add\n    /* \"#utility.yul\":1115:1179   */\n  tag_20\n  jump\t// in\ntag_57:\n    /* \"#utility.yul\":1105:1179   */\n  swap2\n  pop\n    /* \"#utility.yul\":1061:1189   */\n  pop\n    /* \"#utility.yul\":845:1196   */\n  swap3\n  swap2\n  pop\n  pop\n  jump\t// out\n    /* \"#utility.yul\":1202:1382   */\ntag_8:\n    /* \"#utility.yul\":1250:1327   */\n  0x4e487b7100000000000000000000000000000000000000000000000000000000\n    /* \"#utility.yul\":1247:1248   */\n  0x00\n    /* \"#utility.yul\":1240:1328   */\n  mstore\n    /* \"#utility.yul\":1347:1351   */\n  0x21\n    /* \"#utility.yul\":1344:1345   */\n  0x04\n    /* \"#utility.yul\":1337:1352   */\n  mstore\n    /* \"#utility.yul\":1371:1375   */\n  0x24\n    /* \"#utility.yul\":1368:1369   */\n  0x00\n    /* \"#utility.yul\":1361:1376   */\n  revert\n    /* \"#utility.yul\":1388:1465   */\ntag_21:\n    /* \"#utility.yul\":1425:1432   */\n  0x00\n    /* \"#utility.yul\":1454:1459   */\n  dup2\n    /* \"#utility.yul\":1443:1459   */\n  swap1\n  pop\n    /* \"#utility.yul\":1388:1465   */\n  swap2\n  swap1\n  pop\n  jump\t// out\n    /* \"#utility.yul\":1471:1651   */\ntag_22:\n    /* \"#utility.yul\":1519:1596   */\n  0x4e487b7100000000000000000000000000000000000000000000000000000000\n    /* \"#utility.yul\":1516:1517   */\n  0x00\n    /* \"#utility.yul\":1509:1597   */\n  mstore\n    /* \"#utility.yul\":1616:1620   */\n  0x11\n    /* \"#utility.yul\":1613:1614   */\n  0x04\n    /* \"#utility.yul\":1606:1621   */\n  mstore\n    /* \"#utility.yul\":1640:1644   */\n  0x24\n    /* \"#utility.yul\":1637:1638   */\n  0x00\n    /* \"#utility.yul\":1630:1645   */\n  revert\n    /* \"#utility.yul\":1657:1848   */\ntag_10:\n    /* \"#utility.yul\":1697:1700   */\n  0x00\n    /* \"#utility.yul\":1716:1736   */\n  tag_62\n    /* \"#utility.yul\":1734:1735   */\n  dup3\n    /* \"#utility.yul\":1716:1736   */\n  tag_21\n  jump\t// in\ntag_62:\n    /* \"#utility.yul\":1711:1736   */\n  swap2\n  pop\n    /* \"#utility.yul\":1750:1770   */\n  tag_63\n    /* \"#utility.yul\":1768:1769   */\n  dup4\n    /* \"#utility.yul\":1750:1770   */\n  tag_21\n  jump\t// in\ntag_63:\n    /* \"#utility.yul\":1745:1770   */\n  swap3\n  pop\n    /* \"#utility.yul\":1793:1794   */\n  dup3\n    /* \"#utility.yul\":1790:1791   */\n  dup3\n    /* \"#utility.yul\":1786:1795   */\n  add\n    /* \"#utility.yul\":1779:1795   */\n  swap1\n  pop\n    /* \"#utility.yul\":1814:1817   */\n  dup1\n    /* \"#utility.yul\":1811:1812   */\n  dup3\n    /* \"#utility.yul\":1808:1818   */\n  gt\n    /* \"#utility.yul\":1805:1841   */\n  iszero\n  tag_64\n  jumpi\n    /* \"#utility.yul\":1821:1839   */\n  tag_65\n  tag_22\n  jump\t// in\ntag_65:\n    /* \"#utility.yul\":1805:1841   */\ntag_64:\n    /* \"#utility.yul\":1657:1848   */\n  swap3\n  swap2\n  pop\n  pop\n  jump\t// out\n    /* \"#utility.yul\":1854:1953   */\ntag_23:\n    /* \"#utility.yul\":1906:1912   */\n  0x00\n    /* \"#utility.yul\":1940:1945   */\n  dup2\n    /* \"#utility.yul\":1934:1946   */\n  mload\n    /* \"#utility.yul\":1924:1946   */\n  swap1\n  pop\n    /* \"#utility.yul\":1854:1953   */\n  swap2\n  swap1\n  pop\n  jump\t// out\n    /* \"#utility.yul\":1959:2139   */\ntag_24:\n    /* \"#utility.yul\":2007:2084   */\n  0x4e487b7100000000000000000000000000000000000000000000000000000000\n    /* \"#utility.yul\":2004:2005   */\n  0x00\n    /* \"#utility.yul\":1997:2085   */\n  mstore\n    /* \"#utility.yul\":2104:2108   */\n  0x41\n    /* \"#utility.yul\":2101:2102   */\n  0x04\n    /* \"#utility.yul\":2094:2109   */\n  mstore\n    /* \"#utility.yul\":2128:2132   */\n  0x24\n    /* \"#utility.yul\":2125:2126   */\n  0x00\n    /* \"#utility.yul\":2118:2133   */\n  revert\n    /* \"#utility.yul\":2145:2325   */\ntag_25:\n    /* \"#utility.yul\":2193:2270   */\n  0x4e487b7100000000000000000000000000000000000000000000000000000000\n    /* \"#utility.yul\":2190:2191   */\n  0x00\n    /* \"#utility.yul\":2183:2271   */\n  mstore\n    /* \"#utility.yul\":2290:2294   */\n  0x22\n    /* \"#utility.yul\":2287:2288   */\n  0x04\n    /* \"#utility.yul\":2280:2295   */\n  mstore\n    /* \"#utility.yul\":2314:2318   */\n  0x24\n    /* \"#utility.yul\":2311:2312   */\n  0x00\n    /* \"#utility.yul\":2304:2319   */\n  revert\n    /* \"#utility.yul\":2331:2651   */\ntag_26:\n    /* \"#utility.yul\":2375:2381   */\n  0x00\n    /* \"#utility.yul\":2412:2413   */\n  0x02\n    /* \"#utility.yul\":2406:2410   */\n  dup3\n    /* \"#utility.yul\":2402:2414   */\n  div\n    /* \"#utility.yul\":2392:2414   */\n  swap1\n  pop\n    /* \"#utility.yul\":2459:2460   */\n  0x01\n    /* \"#utility.yul\":2453:2457   */\n  dup3\n    /* \"#utility.yul\":2449:2461   */\n  and\n    /* \"#utility.yul\":2480:2498   */\n  dup1\n    /* \"#utility.yul\":2470:2551   */\n  tag_70\n  jumpi\n    /* \"#utility.yul\":2536:2540   */\n  0x7f\n    /* \"#utility.yul\":2528:2534   */\n  dup3\n    /* \"#utility.yul\":2524:2541   */\n  and\n    /* \"#utility.yul\":2514:2541   */\n  swap2\n  pop\n    /* \"#utility.yul\":2470:2551   */\ntag_70:\n    /* \"#utility.yul\":2598:2600   */\n  0x20\n    /* \"#utility.yul\":2590:2596   */\n  dup3\n    /* \"#utility.yul\":2587:2601   */\n  lt\n    /* \"#utility.yul\":2567:2585   */\n  dup2\n    /* \"#utility.yul\":2564:2602   */\n  sub\n    /* \"#utility.yul\":2561:2645   */\n  tag_71\n  jumpi\n    /* \"#utility.yul\":2617:2635   */\n  tag_72\n  tag_25\n  jump\t// in\ntag_72:\n    /* \"#utility.yul\":2561:2645   */\ntag_71:\n    /* \"#utility.yul\":2382:2651   */\n  pop\n    /* \"#utility.yul\":2331:2651   */\n  swap2\n  swap1\n  pop\n  jump\t// out\n    /* \"#utility.yul\":2657:2798   */\ntag_27:\n    /* \"#utility.yul\":2706:2710   */\n  0x00\n    /* \"#utility.yul\":2729:2732   */\n  dup2\n    /* \"#utility.yul\":2721:2732   */\n  swap1\n  pop\n    /* \"#utility.yul\":2752:2755   */\n  dup2\n    /* \"#utility.yul\":2749:2750   */\n  0x00\n    /* \"#utility.yul\":2742:2756   */\n  mstore\n    /* \"#utility.yul\":2786:2790   */\n  0x20\n    /* \"#utility.yul\":2783:2784   */\n  0x00\n    /* \"#utility.yul\":2773:2791   */\n  keccak256\n    /* \"#utility.yul\":2765:2791   */\n  swap1\n  pop\n    /* \"#utility.yul\":2657:2798   */\n  swap2\n  swap1\n  pop\n  jump\t// out\n    /* \"#utility.yul\":2804:2897   */\ntag_28:\n    /* \"#utility.yul\":2841:2847   */\n  0x00\n    /* \"#utility.yul\":2888:2890   */\n  0x20\n    /* \"#utility.yul\":2883:2885   */\n  0x1f\n    /* \"#utility.yul\":2876:2881   */\n  dup4\n    /* \"#utility.yul\":2872:2886   */\n  add\n    /* \"#utility.yul\":2868:2891   */\n  div\n    /* \"#utility.yul\":2858:2891   */\n  swap1\n  pop\n    /* \"#utility.yul\":2804:2897   */\n  swap2\n  swap1\n  pop\n  jump\t// out\n    /* \"#utility.yul\":2903:3010   */\ntag_29:\n    /* \"#utility.yul\":2947:2955   */\n  0x00\n    /* \"#utility.yul\":2997:3002   */\n  dup3\n    /* \"#utility.yul\":2991:2995   */\n  dup3\n    /* \"#utility.yul\":2987:3003   */\n  shl\n    /* \"#utility.yul\":2966:3003   */\n  swap1\n  pop\n    /* \"#utility.yul\":2903:3010   */\n  swap3\n  swap2\n  pop\n  pop\n  jump\t// out\n    /* \"#utility.yul\":3016:3409   */\ntag_30:\n    /* \"#utility.yul\":3085:3091   */\n  0x00\n    /* \"#utility.yul\":3135:3136   */\n  0x08\n    /* \"#utility.yul\":3123:3133   */\n  dup4\n    /* \"#utility.yul\":3119:3137   */\n  mul\n    /* \"#utility.yul\":3158:3255   */\n  tag_77\n    /* \"#utility.yul\":3188:3254   */\n  0xffffffffffffffffffffffffffffffffffffffffffffffffffffffffffffffff\n    /* \"#utility.yul\":3177:3186   */\n  dup3\n    /* \"#utility.yul\":3158:3255   */\n  tag_29\n  jump\t// in\ntag_77:\n    /* \"#utility.yul\":3276:3315   */\n  tag_78\n    /* \"#utility.yul\":3306:3314   */\n  dup7\n    /* \"#utility.yul\":3295:3304   */\n  dup4\n    /* \"#utility.yul\":3276:3315   */\n  tag_29\n  jump\t// in\ntag_78:\n    /* \"#utility.yul\":3264:3315   */\n  swap6\n  pop\n    /* \"#utility.yul\":3348:3352   */\n  dup1\n    /* \"#utility.yul\":3344:3353   */\n  not\n    /* \"#utility.yul\":3337:3342   */\n  dup5\n    /* \"#utility.yul\":3333:3354   */\n  and\n    /* \"#utility.yul\":3324:3354   */\n  swap4\n  pop\n    /* \"#utility.yul\":3397:3401   */\n  dup1\n    /* \"#utility.yul\":3387:3395   */\n  dup7\n    /* \"#utility.yul\":3383:3402   */\n  and\n    /* \"#utility.yul\":3376:3381   */\n  dup5\n    /* \"#utility.yul\":3373:3403   */\n  or\n    /* \"#utility.yul\":3363:3403   */\n  swap3\n  pop\n    /* \"#utility.yul\":3092:3409   */\n  pop\n  pop\n    /* \"#utility.yul\":3016:3409   */\n  swap4\n  swap3\n  pop\n  pop\n  pop\n  jump\t// out\n    /* \"#utility.yul\":3415:3475   */\ntag_31:\n    /* \"#utility.yul\":3443:3446   */\n  0x00\n    /* \"#utility.yul\":3464:3469   */\n  dup2\n    /* \"#utility.yul\":3457:3469   */\n  swap1\n  pop\n    /* \"#utility.yul\":3415:3475   */\n  swap2\n  swap1\n  pop\n  jump\t// out\n    /* \"#utility.yul\":3481:3623   */\ntag_32:\n    /* \"#utility.yul\":3531:3540   */\n  0x00\n    /* \"#utility.yul\":3564:3617   */\n  tag_81\n    /* \"#utility.yul\":3582:3616   */\n  tag_82\n    /* \"#utility.yul\":3591:3615   */\n  tag_83\n    /* \"#utility.yul\":3609:3614   */\n  dup5\n    /* \"#utility.yul\":3591:3615   */\n  tag_21\n  jump\t// in\ntag_83:\n    /* \"#utility.yul\":3582:3616   */\n  tag_31\n  jump\t// in\ntag_82:\n    /* \"#utility.yul\":3564:3617   */\n  tag_21\n  jump\t// in\ntag_81:\n    /* \"#utility.yul\":3551:3617   */\n  swap1\n  pop\n    /* \"#utility.yul\":3481:3623   */\n  swap2\n  swap1\n  pop\n  jump\t// out\n    /* \"#utility.yul\":3629:3704   */\ntag_33:\n    /* \"#utility.yul\":3672:3675   */\n  0x00\n    /* \"#utility.yul\":3693:3698   */\n  dup2\n    /* \"#utility.yul\":3686:3698   */\n  swap1\n  pop\n    /* \"#utility.yul\":3629:3704   */\n  swap2\n  swap1\n  pop\n  jump\t// out\n    /* \"#utility.yul\":3710:3979   */\ntag_34:\n    /* \"#utility.yul\":3820:3859   */\n  tag_86\n    /* \"#utility.yul\":3851:3858   */\n  dup4\n    /* \"#utility.yul\":3820:3859   */\n  tag_32\n  jump\t// in\ntag_86:\n    /* \"#utility.yul\":3881:3972   */\n  tag_87\n    /* \"#utility.yul\":3930:3971   */\n  tag_88\n    /* \"#utility.yul\":3954:3970   */\n  dup3\n    /* \"#utility.yul\":3930:3971   */\n  tag_33\n  jump\t// in\ntag_88:\n    /* \"#utility.yul\":3922:3928   */\n  dup5\n    /* \"#utility.yul\":3915:3919   */\n  dup5\n    /* \"#utility.yul\":3909:3920   */\n  sload\n    /* \"#utility.yul\":3881:3972   */\n  tag_30\n  jump\t// in\ntag_87:\n    /* \"#utility.yul\":3875:3879   */\n  dup3\n    /* \"#utility.yul\":3868:3973   */\n  sstore\n    /* \"#utility.yul\":3786:3979   */\n  pop\n    /* \"#utility.yul\":3710:3979   */\n  pop\n  pop\n  pop\n  jump\t// out\n    /* \"#utility.yul\":3985:4058   */\ntag_35:\n    /* \"#utility.yul\":4030:4033   */\n  0x00\n    /* \"#utility.yul\":3985:4058   */\n  swap1\n  jump\t// out\n    /* \"#utility.yul\":4064:4253   */\ntag_36:\n    /* \"#utility.yul\":4141:4173   */\n  tag_91\n  tag_35\n  jump\t// in\ntag_91:\n    /* \"#utility.yul\":4182:4247   */\n  tag_92\n    /* \"#utility.yul\":4240:4246   */\n  dup2\n    /* \"#utility.yul\":4232:4238   */\n  dup5\n    /* \"#utility.yul\":4226:4230   */\n  dup5\n    /* \"#utility.yul\":4182:4247   */\n  tag_34\n  jump\t// in\ntag_92:\n    /* \"#utility.yul\":4117:4253   */\n  pop\n    /* \"#utility.yul\":4064:4253   */\n  pop\n  pop\n  jump\t// out\n    /* \"#utility.yul\":4259:4445   */\ntag_37:\n    /* \"#utility.yul\":4319:4439   */\ntag_94:\n    /* \"#utility.yul\":4336:4339   */\n  dup2\n    /* \"#utility.yul\":4329:4334   */\n  dup2\n    /* \"#utility.yul\":4326:4340   */\n  lt\n    /* \"#utility.yul\":4319:4439   */\n  iszero\n  tag_96\n  jumpi\n    /* \"#utility.yul\":4390:4429   */\n  tag_97\n    /* \"#utility.yul\":4427:4428   */\n  0x00\n    /* \"#utility.yul\":4420:4425   */\n  dup3\n    /* \"#utility.yul\":4390:4429   */\n  tag_36\n  jump\t// in\ntag_97:\n    /* \"#utility.yul\":4363:4364   */\n  0x01\n    /* \"#utility.yul\":4356:4361   */\n  dup2\n    /* \"#utility.yul\":4352:4365   */\n  add\n    /* \"#utility.yul\":4343:4365   */\n  swap1\n  pop\n    /* \"#utility.yul\":4319:4439   */\n  jump(tag_94)\ntag_96:\n    /* \"#utility.yul\":4259:4445   */\n  pop\n  pop\n  jump\t// out\n    /* \"#utility.yul\":4451:4994   */\ntag_38:\n    /* \"#utility.yul\":4552:4554   */\n  0x1f\n    /* \"#utility.yul\":4547:4550   */\n  dup3\n    /* \"#utility.yul\":4544:4555   */\n  gt\n    /* \"#utility.yul\":4541:4987   */\n  iszero\n  tag_99\n  jumpi\n    /* \"#utility.yul\":4586:4624   */\n  tag_100\n    /* \"#utility.yul\":4618:4623   */\n  dup2\n    /* \"#utility.yul\":4586:4624   */\n  tag_27\n  jump\t// in\ntag_100:\n    /* \"#utility.yul\":4670:4699   */\n  tag_101\n    /* \"#utility.yul\":4688:4698   */\n  dup5\n    /* \"#utility.yul\":4670:4699   */\n  tag_28\n  jump\t// in\ntag_101:\n    /* \"#utility.yul\":4660:4668   */\n  dup2\n    /* \"#utility.yul\":4656:4700   */\n  add\n    /* \"#utility.yul\":4853:4855   */\n  0x20\n    /* \"#utility.yul\":4841:4851   */\n  dup6\n    /* \"#utility.yul\":4838:4856   */\n  lt\n    /* \"#utility.yul\":4835:4884   */\n  iszero\n  tag_102\n  jumpi\n    /* \"#utility.yul\":4874:4882   */\n  dup2\n    /* \"#utility.yul\":4859:4882   */\n  swap1\n  pop\n    /* \"#utility.yul\":4835:4884   */\ntag_102:\n    /* \"#utility.yul\":4897:4977   */\n  tag_103\n    /* \"#utility.yul\":4953:4975   */\n  tag_104\n    /* \"#utility.yul\":4971:4974   */\n  dup6\n    /* \"#utility.yul\":4953:4975   */\n  tag_28\n  jump\t// in\ntag_104:\n    /* \"#utility.yul\":4943:4951   */\n  dup4\n    /* \"#utility.yul\":4939:4976   */\n  add\n    /* \"#utility.yul\":4926:4937   */\n  dup3\n    /* \"#utility.yul\":4897:4977   */\n  tag_37\n  jump\t// in\ntag_103:\n    /* \"#utility.yul\":4556:4987   */\n  pop\n  pop\n    /* \"#utility.yul\":4541:4987   */\ntag_99:\n    /* \"#utility.yul\":4451:4994   */\n  pop\n  pop\n  pop\n  jump\t// out\n    /* \"#utility.yul\":5000:5117   */\ntag_39:\n    /* \"#utility.yul\":5054:5062   */\n  0x00\n    /* \"#utility.yul\":5104:5109   */\n  dup3\n    /* \"#utility.yul\":5098:5102   */\n  dup3\n    /* \"#utility.yul\":5094:5110   */\n  shr\n    /* \"#utility.yul\":5073:5110   */\n  swap1\n  pop\n    /* \"#utility.yul\":5000:5117   */\n  swap3\n  swap2\n  pop\n  pop\n  jump\t// out\n    /* \"#utility.yul\":5123:5292   */\ntag_40:\n    /* \"#utility.yul\":5167:5173   */\n  0x00\n    /* \"#utility.yul\":5200:5251   */\n  tag_107\n    /* \"#utility.yul\":5248:5249   */\n  0x00\n    /* \"#utility.yul\":5244:5250   */\n  not\n    /* \"#utility.yul\":5236:5241   */\n  dup5\n    /* \"#utility.yul\":5233:5234   */\n  0x08\n    /* \"#utility.yul\":5229:5242   */\n  mul\n    /* \"#utility.yul\":5200:5251   */\n  tag_39\n  jump\t// in\ntag_107:\n    /* \"#utility.yul\":5196:5252   */\n  not\n    /* \"#utility.yul\":5281:5285   */\n  dup1\n    /* \"#utility.yul\":5275:5279   */\n  dup4\n    /* \"#utility.yul\":5271:5286   */\n  and\n    /* \"#utility.yul\":5261:5286   */\n  swap2\n  pop\n    /* \"#utility.yul\":5174:5292   */\n  pop\n    /* \"#utility.yul\":5123:5292   */\n  swap3\n  swap2\n  pop\n  pop\n  jump\t// out\n    /* \"#utility.yul\":5297:5592   */\ntag_41:\n    /* \"#utility.yul\":5373:5377   */\n  0x00\n    /* \"#utility.yul\":5519:5548   */\n  tag_109\n    /* \"#utility.yul\":5544:5547   */\n  dup4\n    /* \"#utility.yul\":5538:5542   */\n  dup4\n    /* \"#utility.yul\":5519:5548   */\n  tag_40\n  jump\t// in\ntag_109:\n    /* \"#utility.yul\":5511:5548   */\n  swap2\n  pop\n    /* \"#utility.yul\":5581:5584   */\n  dup3\n    /* \"#utility.yul\":5578:5579   */\n  0x02\n    /* \"#utility.yul\":5574:5585   */\n  mul\n    /* \"#utility.yul\":5568:5572   */\n  dup3\n    /* \"#utility.yul\":5565:5586   */\n  or\n    /* \"#utility.yul\":5557:5586   */\n  swap1\n  pop\n    /* \"#utility.yul\":5297:5592   */\n  swap3\n  swap2\n  pop\n  pop\n  jump\t// out\n    /* \"#utility.yul\":5597:6992   */\ntag_12:\n    /* \"#utility.yul\":5714:5751   */\n  tag_111\n    /* \"#utility.yul\":5747:5750   */\n  dup3\n    /* \"#utility.yul\":5714:5751   */\n  tag_23\n  jump\t// in\ntag_111:\n    /* \"#utility.yul\":5816:5834   */\n  0xffffffffffffffff\n    /* \"#utility.yul\":5808:5814   */\n  dup2\n    /* \"#utility.yul\":5805:5835   */\n  gt\n    /* \"#utility.yul\":5802:5858   */\n  iszero\n  tag_112\n  jumpi\n    /* \"#utility.yul\":5838:5856   */\n  tag_113\n  tag_24\n  jump\t// in\ntag_113:\n    /* \"#utility.yul\":5802:5858   */\ntag_112:\n    /* \"#utility.yul\":5882:5920   */\n  tag_114\n    /* \"#utility.yul\":5914:5918   */\n  dup3\n    /* \"#utility.yul\":5908:5919   */\n  sload\n    /* \"#utility.yul\":5882:5920   */\n  tag_26\n  jump\t// in\ntag_114:\n    /* \"#utility.yul\":5967:6034   */\n  tag_115\n    /* \"#utility.yul\":6027:6033   */\n  dup3\n    /* \"#utility.yul\":6019:6025   */\n  dup3\n    /* \"#utility.yul\":6013:6017   */\n  dup6\n    /* \"#utility.yul\":5967:6034   */\n  tag_38\n  jump\t// in\ntag_115:\n    /* \"#utility.yul\":6061:6062   */\n  0x00\n    /* \"#utility.yul\":6085:6089   */\n  0x20\n    /* \"#utility.yul\":6072:6089   */\n  swap1\n  pop\n    /* \"#utility.yul\":6117:6119   */\n  0x1f\n    /* \"#utility.yul\":6109:6115   */\n  dup4\n    /* \"#utility.yul\":6106:6120   */\n  gt\n    /* \"#utility.yul\":6134:6135   */\n  0x01\n    /* \"#utility.yul\":6129:6747   */\n  dup2\n  eq\n  tag_117\n  jumpi\n    /* \"#utility.yul\":6791:6792   */\n  0x00\n    /* \"#utility.yul\":6808:6814   */\n  dup5\n    /* \"#utility.yul\":6805:6882   */\n  iszero\n  tag_118\n  jumpi\n    /* \"#utility.yul\":6857:6866   */\n  dup3\n    /* \"#utility.yul\":6852:6855   */\n  dup8\n    /* \"#utility.yul\":6848:6867   */\n  add\n    /* \"#utility.yul\":6842:6868   */\n  mload\n    /* \"#utility.yul\":6833:6868   */\n  swap1\n  pop\n    /* \"#utility.yul\":6805:6882   */\ntag_118:\n    /* \"#utility.yul\":6908:6975   */\n  tag_119\n    /* \"#utility.yul\":6968:6974   */\n  dup6\n    /* \"#utility.yul\":6961:6966   */\n  dup3\n    /* \"#utility.yul\":6908:6975   */\n  tag_41\n  jump\t// in\ntag_119:\n    /* \"#utility.yul\":6902:6906   */\n  dup7\n    /* \"#utility.yul\":6895:6976   */\n  sstore\n    /* \"#utility.yul\":6764:6986   */\n  pop\n    /* \"#utility.yul\":6099:6986   */\n  jump(tag_116)\n    /* \"#utility.yul\":6129:6747   */\ntag_117:\n    /* \"#utility.yul\":6181:6185   */\n  0x1f\n    /* \"#utility.yul\":6177:6186   */\n  not\n    /* \"#utility.yul\":6169:6175   */\n  dup5\n    /* \"#utility.yul\":6165:6187   */\n  and\n    /* \"#utility.yul\":6215:6252   */\n  tag_120\n    /* \"#utility.yul\":6247:6251   */\n  dup7\n    /* \"#utility.yul\":6215:6252   */\n  tag_27\n  jump\t// in\ntag_120:\n    /* \"#utility.yul\":6274:6275   */\n  0x00\n    /* \"#utility.yul\":6288:6496   */\ntag_121:\n    /* \"#utility.yul\":6302:6309   */\n  dup3\n    /* \"#utility.yul\":6299:6300   */\n  dup2\n    /* \"#utility.yul\":6296:6310   */\n  lt\n    /* \"#utility.yul\":6288:6496   */\n  iszero\n  tag_123\n  jumpi\n    /* \"#utility.yul\":6381:6390   */\n  dup5\n    /* \"#utility.yul\":6376:6379   */\n  dup10\n    /* \"#utility.yul\":6372:6391   */\n  add\n    /* \"#utility.yul\":6366:6392   */\n  mload\n    /* \"#utility.yul\":6358:6364   */\n  dup3\n    /* \"#utility.yul\":6351:6393   */\n  sstore\n    /* \"#utility.yul\":6432:6433   */\n  0x01\n    /* \"#utility.yul\":6424:6430   */\n  dup3\n    /* \"#utility.yul\":6420:6434   */\n  add\n    /* \"#utility.yul\":6410:6434   */\n  swap2\n  pop\n    /* \"#utility.yul\":6479:6481   */\n  0x20\n    /* \"#utility.yul\":6468:6477   */\n  dup6\n    /* \"#utility.yul\":6464:6482   */\n  add\n    /* \"#utility.yul\":6451:6482   */\n  swap5\n  pop\n    /* \"#utility.yul\":6325:6329   */\n  0x20\n    /* \"#utility.yul\":6322:6323   */\n  dup2\n    /* \"#utility.yul\":6318:6330   */\n  add\n    /* \"#utility.yul\":6313:6330   */\n  swap1\n  pop\n    /* \"#utility.yul\":6288:6496   */\n  jump(tag_121)\ntag_123:\n    /* \"#utility.yul\":6524:6530   */\n  dup7\n    /* \"#utility.yul\":6515:6522   */\n  dup4\n    /* \"#utility.yul\":6512:6531   */\n  lt\n    /* \"#utility.yul\":6509:6688   */\n  iszero\n  tag_124\n  jumpi\n    /* \"#utility.yul\":6582:6591   */\n  dup5\n    /* \"#utility.yul\":6577:6580   */\n  dup10\n    /* \"#utility.yul\":6573:6592   */\n  add\n    /* \"#utility.yul\":6567:6593   */\n  mload\n    /* \"#utility.yul\":6625:6673   */\n  tag_125\n    /* \"#utility.yul\":6667:6671   */\n  0x1f\n    /* \"#utility.yul\":6659:6665   */\n  dup10\n    /* \"#utility.yul\":6655:6672   */\n  and\n    /* \"#utility.yul\":6644:6653   */\n  dup3\n    /* \"#utility.yul\":6625:6673   */\n  tag_40\n  jump\t// in\ntag_125:\n    /* \"#utility.yul\":6617:6623   */\n  dup4\n    /* \"#utility.yul\":6610:6674   */\n  sstore\n    /* \"#utility.yul\":6532:6688   */\n  pop\n    /* \"#utility.yul\":6509:6688   */\ntag_124:\n    /* \"#utility.yul\":6734:6735   */\n  0x01\n    /* \"#utility.yul\":6730:6731   */\n  0x02\n    /* \"#utility.yul\":6722:6728   */\n  dup9\n    /* \"#utility.yul\":6718:6732   */\n  mul\n    /* \"#utility.yul\":6714:6736   */\n  add\n    /* \"#utility.yul\":6708:6712   */\n  dup9\n    /* \"#utility.yul\":6701:6737   */\n  sstore\n    /* \"#utility.yul\":6136:6747   */\n  pop\n  pop\n  pop\n    /* \"#utility.yul\":6099:6986   */\ntag_116:\n  pop\n    /* \"#utility.yul\":5689:6992   */\n  pop\n  pop\n  pop\n    /* \"#utility.yul\":5597:6992   */\n  pop\n  pop\n  jump\t// out\n    /* \"contracts/andrei/projects/auction.sol\":262:3112  contract Auction {... */\ntag_13:\n  dataSize(sub_0)\n  dup1\n  dataOffset(sub_0)\n  0x00\n  codecopy\n  0x00\n  return\nstop\n\nsub_0: assembly {\n        /* \"contracts/andrei/projects/auction.sol\":262:3112  contract Auction {... */\n      mstore(0x40, 0x80)\n      jumpi(tag_1, lt(calldatasize, 0x04))\n      shr(0xe0, calldataload(0x00))\n      dup1\n      0x8fa8b790\n      gt\n      tag_13\n      jumpi\n      dup1\n      0x8fa8b790\n      eq\n      tag_7\n      jumpi\n      dup1\n      0x91f90157\n      eq\n      tag_8\n      jumpi\n      dup1\n      0xc623674f\n      eq\n      tag_9\n      jumpi\n      dup1\n      0xecfc7ecc\n      eq\n      tag_10\n      jumpi\n      dup1\n      0xf5b56c56\n      eq\n      tag_11\n      jumpi\n      dup1\n      0xf77282ab\n      eq\n      tag_12\n      jumpi\n      jump(tag_1)\n    tag_13:\n      dup1\n      0x083c6323\n      eq\n      tag_2\n      jumpi\n      dup1\n      0x48cd4cb1\n      eq\n      tag_3\n      jumpi\n      dup1\n      0x62ea82db\n      eq\n      tag_4\n      jumpi\n      dup1\n      0x7fb45099\n      eq\n      tag_5\n      jumpi\n      dup1\n      0x8da5cb5b\n      eq\n      tag_6\n      jumpi\n    tag_1:\n      0x00\n      dup1\n      revert\n        /* \"contracts/andrei/projects/auction.sol\":348:368  uint public endBlock */\n    tag_2:\n      callvalue\n      dup1\n      iszero\n      tag_14\n      jumpi\n      0x00\n      dup1\n      revert\n    tag_14:\n      pop\n      tag_15\n      tag_16\n      jump\t// in\n    tag_15:\n      mload(0x40)\n      tag_17\n      swap2\n      swap1\n      tag_18\n      jump\t// in\n    tag_17:\n      mload(0x40)\n      dup1\n      swap2\n      sub\n      swap1\n      return\n        /* \"contracts/andrei/projects/auction.sol\":320:342  uint public startBlock */\n    tag_3:\n      callvalue\n      dup1\n      iszero\n      tag_19\n      jumpi\n      0x00\n      dup1\n      revert\n    tag_19:\n      pop\n      tag_20\n      tag_21\n      jump\t// in\n    tag_20:\n      mload(0x40)\n      tag_22\n      swap2\n      swap1\n      tag_18\n      jump\t// in\n    tag_22:\n      mload(0x40)\n      dup1\n      swap2\n      sub\n      swap1\n      return\n        /* \"contracts/andrei/projects/auction.sol\":568:604  mapping(address => uint) public bids */\n    tag_4:\n      callvalue\n      dup1\n      iszero\n      tag_23\n      jumpi\n      0x00\n      dup1\n      revert\n    tag_23:\n      pop\n      tag_24\n      0x04\n      dup1\n      calldatasize\n      sub\n      dup2\n      add\n      swap1\n      tag_25\n      swap2\n      swap1\n      tag_26\n      jump\t// in\n    tag_25:\n      tag_27\n      jump\t// in\n    tag_24:\n      mload(0x40)\n      tag_28\n      swap2\n      swap1\n      tag_18\n      jump\t// in\n    tag_28:\n      mload(0x40)\n      dup1\n      swap2\n      sub\n      swap1\n      return\n        /* \"contracts/andrei/projects/auction.sol\":453:478  State public auctionState */\n    tag_5:\n      callvalue\n      dup1\n      iszero\n      tag_29\n      jumpi\n      0x00\n      dup1\n      revert\n    tag_29:\n      pop\n      tag_30\n      tag_31\n      jump\t// in\n    tag_30:\n      mload(0x40)\n      tag_32\n      swap2\n      swap1\n      tag_33\n      jump\t// in\n    tag_32:\n      mload(0x40)\n      dup1\n      swap2\n      sub\n      swap1\n      return\n        /* \"contracts/andrei/projects/auction.sol\":286:314  address payable public owner */\n    tag_6:\n      callvalue\n      dup1\n      iszero\n      tag_34\n      jumpi\n      0x00\n      dup1\n      revert\n    tag_34:\n      pop\n      tag_35\n      tag_36\n      jump\t// in\n    tag_35:\n      mload(0x40)\n      tag_37\n      swap2\n      swap1\n      tag_38\n      jump\t// in\n    tag_37:\n      mload(0x40)\n      dup1\n      swap2\n      sub\n      swap1\n      return\n        /* \"contracts/andrei/projects/auction.sol\":1409:1500  function cancelAuction() public onlyOwner(){... */\n    tag_7:\n      callvalue\n      dup1\n      iszero\n      tag_39\n      jumpi\n      0x00\n      dup1\n      revert\n    tag_39:\n      pop\n      tag_40\n      tag_41\n      jump\t// in\n    tag_40:\n      stop\n        /* \"contracts/andrei/projects/auction.sol\":525:561  address payable public highestBidder */\n    tag_8:\n      callvalue\n      dup1\n      iszero\n      tag_42\n      jumpi\n      0x00\n      dup1\n      revert\n    tag_42:\n      pop\n      tag_43\n      tag_44\n      jump\t// in\n    tag_43:\n      mload(0x40)\n      tag_45\n      swap2\n      swap1\n      tag_38\n      jump\t// in\n    tag_45:\n      mload(0x40)\n      dup1\n      swap2\n      sub\n      swap1\n      return\n        /* \"contracts/andrei/projects/auction.sol\":374:396  string public ipfsHash */\n    tag_9:\n      callvalue\n      dup1\n      iszero\n      tag_46\n      jumpi\n      0x00\n      dup1\n      revert\n    tag_46:\n      pop\n      tag_47\n      tag_48\n      jump\t// in\n    tag_47:\n      mload(0x40)\n      tag_49\n      swap2\n      swap1\n      tag_50\n      jump\t// in\n    tag_49:\n      mload(0x40)\n      dup1\n      swap2\n      sub\n      swap1\n      return\n        /* \"contracts/andrei/projects/auction.sol\":1511:2065  function placeBid() public payable notOwner afterStart beforeEnd{... */\n    tag_10:\n      tag_51\n      tag_52\n      jump\t// in\n    tag_51:\n      stop\n        /* \"contracts/andrei/projects/auction.sol\":490:519  uint public highestBindingBid */\n    tag_11:\n      callvalue\n      dup1\n      iszero\n      tag_53\n      jumpi\n      0x00\n      dup1\n      revert\n    tag_53:\n      pop\n      tag_54\n      tag_55\n      jump\t// in\n    tag_54:\n      mload(0x40)\n      tag_56\n      swap2\n      swap1\n      tag_18\n      jump\t// in\n    tag_56:\n      mload(0x40)\n      dup1\n      swap2\n      sub\n      swap1\n      return\n        /* \"contracts/andrei/projects/auction.sol\":2070:3106  function finalizeAuction() public{... */\n    tag_12:\n      callvalue\n      dup1\n      iszero\n      tag_57\n      jumpi\n      0x00\n      dup1\n      revert\n    tag_57:\n      pop\n      tag_58\n      tag_59\n      jump\t// in\n    tag_58:\n      stop\n        /* \"contracts/andrei/projects/auction.sol\":348:368  uint public endBlock */\n    tag_16:\n      sload(0x02)\n      dup2\n      jump\t// out\n        /* \"contracts/andrei/projects/auction.sol\":320:342  uint public startBlock */\n    tag_21:\n      sload(0x01)\n      dup2\n      jump\t// out\n        /* \"contracts/andrei/projects/auction.sol\":568:604  mapping(address => uint) public bids */\n    tag_27:\n      mstore(0x20, 0x07)\n      dup1\n      0x00\n      mstore\n      keccak256(0x00, 0x40)\n      0x00\n      swap2\n      pop\n      swap1\n      pop\n      sload\n      dup2\n      jump\t// out\n        /* \"contracts/andrei/projects/auction.sol\":453:478  State public auctionState */\n    tag_31:\n      0x04\n      0x00\n      swap1\n      sload\n      swap1\n      0x0100\n      exp\n      swap1\n      div\n      0xff\n      and\n      dup2\n      jump\t// out\n        /* \"contracts/andrei/projects/auction.sol\":286:314  address payable public owner */\n    tag_36:\n      0x00\n      dup1\n      sload\n      swap1\n      0x0100\n      exp\n      swap1\n      div\n      0xffffffffffffffffffffffffffffffffffffffff\n      and\n      dup2\n      jump\t// out\n        /* \"contracts/andrei/projects/auction.sol\":1409:1500  function cancelAuction() public onlyOwner(){... */\n    tag_41:\n        /* \"contracts/andrei/projects/auction.sol\":1206:1211  owner */\n      0x00\n      dup1\n      sload\n      swap1\n      0x0100\n      exp\n      swap1\n      div\n      0xffffffffffffffffffffffffffffffffffffffff\n      and\n        /* \"contracts/andrei/projects/auction.sol\":1192:1211  msg.sender == owner */\n      0xffffffffffffffffffffffffffffffffffffffff\n      and\n        /* \"contracts/andrei/projects/auction.sol\":1192:1202  msg.sender */\n      caller\n        /* \"contracts/andrei/projects/auction.sol\":1192:1211  msg.sender == owner */\n      0xffffffffffffffffffffffffffffffffffffffff\n      and\n      eq\n        /* \"contracts/andrei/projects/auction.sol\":1184:1212  require(msg.sender == owner) */\n      tag_61\n      jumpi\n      0x00\n      dup1\n      revert\n    tag_61:\n        /* \"contracts/andrei/projects/auction.sol\":1478:1492  State.Canceled */\n      0x03\n        /* \"contracts/andrei/projects/auction.sol\":1463:1475  auctionState */\n      0x04\n      0x00\n        /* \"contracts/andrei/projects/auction.sol\":1463:1492  auctionState = State.Canceled */\n      0x0100\n      exp\n      dup2\n      sload\n      dup2\n      0xff\n      mul\n      not\n      and\n      swap1\n      dup4\n      0x03\n      dup2\n      gt\n      iszero\n      tag_63\n      jumpi\n      tag_64\n      tag_65\n      jump\t// in\n    tag_64:\n    tag_63:\n      mul\n      or\n      swap1\n      sstore\n      pop\n        /* \"contracts/andrei/projects/auction.sol\":1409:1500  function cancelAuction() public onlyOwner(){... */\n      jump\t// out\n        /* \"contracts/andrei/projects/auction.sol\":525:561  address payable public highestBidder */\n    tag_44:\n      0x06\n      0x00\n      swap1\n      sload\n      swap1\n      0x0100\n      exp\n      swap1\n      div\n      0xffffffffffffffffffffffffffffffffffffffff\n      and\n      dup2\n      jump\t// out\n        /* \"contracts/andrei/projects/auction.sol\":374:396  string public ipfsHash */\n    tag_48:\n      0x03\n      dup1\n      sload\n      tag_66\n      swap1\n      tag_67\n      jump\t// in\n    tag_66:\n      dup1\n      0x1f\n      add\n      0x20\n      dup1\n      swap2\n      div\n      mul\n      0x20\n      add\n      mload(0x40)\n      swap1\n      dup2\n      add\n      0x40\n      mstore\n      dup1\n      swap3\n      swap2\n      swap1\n      dup2\n      dup2\n      mstore\n      0x20\n      add\n      dup3\n      dup1\n      sload\n      tag_68\n      swap1\n      tag_67\n      jump\t// in\n    tag_68:\n      dup1\n      iszero\n      tag_69\n      jumpi\n      dup1\n      0x1f\n      lt\n      tag_70\n      jumpi\n      0x0100\n      dup1\n      dup4\n      sload\n      div\n      mul\n      dup4\n      mstore\n      swap2\n      0x20\n      add\n      swap2\n      jump(tag_69)\n    tag_70:\n      dup3\n      add\n      swap2\n      swap1\n      0x00\n      mstore\n      keccak256(0x00, 0x20)\n      swap1\n    tag_71:\n      dup2\n      sload\n      dup2\n      mstore\n      swap1\n      0x01\n      add\n      swap1\n      0x20\n      add\n      dup1\n      dup4\n      gt\n      tag_71\n      jumpi\n      dup3\n      swap1\n      sub\n      0x1f\n      and\n      dup3\n      add\n      swap2\n    tag_69:\n      pop\n      pop\n      pop\n      pop\n      pop\n      dup2\n      jump\t// out\n        /* \"contracts/andrei/projects/auction.sol\":1511:2065  function placeBid() public payable notOwner afterStart beforeEnd{... */\n    tag_52:\n        /* \"contracts/andrei/projects/auction.sol\":934:939  owner */\n      0x00\n      dup1\n      sload\n      swap1\n      0x0100\n      exp\n      swap1\n      div\n      0xffffffffffffffffffffffffffffffffffffffff\n      and\n        /* \"contracts/andrei/projects/auction.sol\":920:939  msg.sender != owner */\n      0xffffffffffffffffffffffffffffffffffffffff\n      and\n        /* \"contracts/andrei/projects/auction.sol\":920:930  msg.sender */\n      caller\n        /* \"contracts/andrei/projects/auction.sol\":920:939  msg.sender != owner */\n      0xffffffffffffffffffffffffffffffffffffffff\n      and\n      sub\n        /* \"contracts/andrei/projects/auction.sol\":912:940  require(msg.sender != owner) */\n      tag_73\n      jumpi\n      0x00\n      dup1\n      revert\n    tag_73:\n        /* \"contracts/andrei/projects/auction.sol\":1023:1033  startBlock */\n      sload(0x01)\n        /* \"contracts/andrei/projects/auction.sol\":1007:1019  block.number */\n      number\n        /* \"contracts/andrei/projects/auction.sol\":1007:1033  block.number >= startBlock */\n      lt\n      iszero\n        /* \"contracts/andrei/projects/auction.sol\":999:1034  require(block.number >= startBlock) */\n      tag_75\n      jumpi\n      0x00\n      dup1\n      revert\n    tag_75:\n        /* \"contracts/andrei/projects/auction.sol\":1117:1125  endBlock */\n      sload(0x02)\n        /* \"contracts/andrei/projects/auction.sol\":1101:1113  block.number */\n      number\n        /* \"contracts/andrei/projects/auction.sol\":1101:1125  block.number <= endBlock */\n      gt\n      iszero\n        /* \"contracts/andrei/projects/auction.sol\":1093:1126  require(block.number <= endBlock) */\n      tag_77\n      jumpi\n      0x00\n      dup1\n      revert\n    tag_77:\n        /* \"contracts/andrei/projects/auction.sol\":1607:1620  State.Running */\n      0x01\n        /* \"contracts/andrei/projects/auction.sol\":1591:1620  auctionState == State.Running */\n      0x03\n      dup2\n      gt\n      iszero\n      tag_79\n      jumpi\n      tag_80\n      tag_65\n      jump\t// in\n    tag_80:\n    tag_79:\n        /* \"contracts/andrei/projects/auction.sol\":1591:1603  auctionState */\n      0x04\n      0x00\n      swap1\n      sload\n      swap1\n      0x0100\n      exp\n      swap1\n      div\n      0xff\n      and\n        /* \"contracts/andrei/projects/auction.sol\":1591:1620  auctionState == State.Running */\n      0x03\n      dup2\n      gt\n      iszero\n      tag_81\n      jumpi\n      tag_82\n      tag_65\n      jump\t// in\n    tag_82:\n    tag_81:\n      eq\n        /* \"contracts/andrei/projects/auction.sol\":1583:1621  require(auctionState == State.Running) */\n      tag_83\n      jumpi\n      0x00\n      dup1\n      revert\n    tag_83:\n        /* \"contracts/andrei/projects/auction.sol\":1650:1653  100 */\n      0x64\n        /* \"contracts/andrei/projects/auction.sol\":1637:1646  msg.value */\n      callvalue\n        /* \"contracts/andrei/projects/auction.sol\":1637:1653  msg.value >= 100 */\n      lt\n      iszero\n        /* \"contracts/andrei/projects/auction.sol\":1629:1654  require(msg.value >= 100) */\n      tag_84\n      jumpi\n      0x00\n      dup1\n      revert\n    tag_84:\n        /* \"contracts/andrei/projects/auction.sol\":1661:1676  uint currentBid */\n      0x00\n        /* \"contracts/andrei/projects/auction.sol\":1698:1707  msg.value */\n      callvalue\n        /* \"contracts/andrei/projects/auction.sol\":1679:1683  bids */\n      0x07\n        /* \"contracts/andrei/projects/auction.sol\":1679:1695  bids[msg.sender] */\n      0x00\n        /* \"contracts/andrei/projects/auction.sol\":1684:1694  msg.sender */\n      caller\n        /* \"contracts/andrei/projects/auction.sol\":1679:1695  bids[msg.sender] */\n      0xffffffffffffffffffffffffffffffffffffffff\n      and\n      0xffffffffffffffffffffffffffffffffffffffff\n      and\n      dup2\n      mstore\n      0x20\n      add\n      swap1\n      dup2\n      mstore\n      0x20\n      add\n      0x00\n      keccak256\n      sload\n        /* \"contracts/andrei/projects/auction.sol\":1679:1707  bids[msg.sender] + msg.value */\n      tag_85\n      swap2\n      swap1\n      tag_86\n      jump\t// in\n    tag_85:\n        /* \"contracts/andrei/projects/auction.sol\":1661:1707  uint currentBid = bids[msg.sender] + msg.value */\n      swap1\n      pop\n        /* \"contracts/andrei/projects/auction.sol\":1734:1751  highestBindingBid */\n      sload(0x05)\n        /* \"contracts/andrei/projects/auction.sol\":1721:1731  currentBid */\n      dup2\n        /* \"contracts/andrei/projects/auction.sol\":1721:1751  currentBid > highestBindingBid */\n      gt\n        /* \"contracts/andrei/projects/auction.sol\":1713:1752  require(currentBid > highestBindingBid) */\n      tag_87\n      jumpi\n      0x00\n      dup1\n      revert\n    tag_87:\n        /* \"contracts/andrei/projects/auction.sol\":1778:1788  currentBid */\n      dup1\n        /* \"contracts/andrei/projects/auction.sol\":1759:1763  bids */\n      0x07\n        /* \"contracts/andrei/projects/auction.sol\":1759:1775  bids[msg.sender] */\n      0x00\n        /* \"contracts/andrei/projects/auction.sol\":1764:1774  msg.sender */\n      caller\n        /* \"contracts/andrei/projects/auction.sol\":1759:1775  bids[msg.sender] */\n      0xffffffffffffffffffffffffffffffffffffffff\n      and\n      0xffffffffffffffffffffffffffffffffffffffff\n      and\n      dup2\n      mstore\n      0x20\n      add\n      swap1\n      dup2\n      mstore\n      0x20\n      add\n      0x00\n      keccak256\n        /* \"contracts/andrei/projects/auction.sol\":1759:1788  bids[msg.sender] = currentBid */\n      dup2\n      swap1\n      sstore\n      pop\n        /* \"contracts/andrei/projects/auction.sol\":1812:1816  bids */\n      0x07\n        /* \"contracts/andrei/projects/auction.sol\":1812:1831  bids[highestBidder] */\n      0x00\n        /* \"contracts/andrei/projects/auction.sol\":1817:1830  highestBidder */\n      0x06\n      0x00\n      swap1\n      sload\n      swap1\n      0x0100\n      exp\n      swap1\n      div\n      0xffffffffffffffffffffffffffffffffffffffff\n      and\n        /* \"contracts/andrei/projects/auction.sol\":1812:1831  bids[highestBidder] */\n      0xffffffffffffffffffffffffffffffffffffffff\n      and\n      0xffffffffffffffffffffffffffffffffffffffff\n      and\n      dup2\n      mstore\n      0x20\n      add\n      swap1\n      dup2\n      mstore\n      0x20\n      add\n      0x00\n      keccak256\n      sload\n        /* \"contracts/andrei/projects/auction.sol\":1798:1808  currentBid */\n      dup2\n        /* \"contracts/andrei/projects/auction.sol\":1798:1831  currentBid <= bids[highestBidder] */\n      gt\n        /* \"contracts/andrei/projects/auction.sol\":1795:2060  if(currentBid <= bids[highestBidder]){... */\n      tag_88\n      jumpi\n        /* \"contracts/andrei/projects/auction.sol\":1860:1911  min(currentBid + bidIncrement, bids[highestBidder]) */\n      tag_89\n        /* \"contracts/andrei/projects/auction.sol\":1877:1889  bidIncrement */\n      sload(0x08)\n        /* \"contracts/andrei/projects/auction.sol\":1864:1874  currentBid */\n      dup3\n        /* \"contracts/andrei/projects/auction.sol\":1864:1889  currentBid + bidIncrement */\n      tag_90\n      swap2\n      swap1\n      tag_86\n      jump\t// in\n    tag_90:\n        /* \"contracts/andrei/projects/auction.sol\":1891:1895  bids */\n      0x07\n        /* \"contracts/andrei/projects/auction.sol\":1891:1910  bids[highestBidder] */\n      0x00\n        /* \"contracts/andrei/projects/auction.sol\":1896:1909  highestBidder */\n      0x06\n      0x00\n      swap1\n      sload\n      swap1\n      0x0100\n      exp\n      swap1\n      div\n      0xffffffffffffffffffffffffffffffffffffffff\n      and\n        /* \"contracts/andrei/projects/auction.sol\":1891:1910  bids[highestBidder] */\n      0xffffffffffffffffffffffffffffffffffffffff\n      and\n      0xffffffffffffffffffffffffffffffffffffffff\n      and\n      dup2\n      mstore\n      0x20\n      add\n      swap1\n      dup2\n      mstore\n      0x20\n      add\n      0x00\n      keccak256\n      sload\n        /* \"contracts/andrei/projects/auction.sol\":1860:1863  min */\n      tag_91\n        /* \"contracts/andrei/projects/auction.sol\":1860:1911  min(currentBid + bidIncrement, bids[highestBidder]) */\n      jump\t// in\n    tag_89:\n        /* \"contracts/andrei/projects/auction.sol\":1840:1857  highestBindingBid */\n      0x05\n        /* \"contracts/andrei/projects/auction.sol\":1840:1911  highestBindingBid = min(currentBid + bidIncrement, bids[highestBidder]) */\n      dup2\n      swap1\n      sstore\n      pop\n        /* \"contracts/andrei/projects/auction.sol\":1795:2060  if(currentBid <= bids[highestBidder]){... */\n      jump(tag_92)\n    tag_88:\n        /* \"contracts/andrei/projects/auction.sol\":1958:2008  min(currentBid,bids[highestBidder] + bidIncrement) */\n      tag_93\n        /* \"contracts/andrei/projects/auction.sol\":1962:1972  currentBid */\n      dup2\n        /* \"contracts/andrei/projects/auction.sol\":1995:2007  bidIncrement */\n      sload(0x08)\n        /* \"contracts/andrei/projects/auction.sol\":1973:1977  bids */\n      0x07\n        /* \"contracts/andrei/projects/auction.sol\":1973:1992  bids[highestBidder] */\n      0x00\n        /* \"contracts/andrei/projects/auction.sol\":1978:1991  highestBidder */\n      0x06\n      0x00\n      swap1\n      sload\n      swap1\n      0x0100\n      exp\n      swap1\n      div\n      0xffffffffffffffffffffffffffffffffffffffff\n      and\n        /* \"contracts/andrei/projects/auction.sol\":1973:1992  bids[highestBidder] */\n      0xffffffffffffffffffffffffffffffffffffffff\n      and\n      0xffffffffffffffffffffffffffffffffffffffff\n      and\n      dup2\n      mstore\n      0x20\n      add\n      swap1\n      dup2\n      mstore\n      0x20\n      add\n      0x00\n      keccak256\n      sload\n        /* \"contracts/andrei/projects/auction.sol\":1973:2007  bids[highestBidder] + bidIncrement */\n      tag_94\n      swap2\n      swap1\n      tag_86\n      jump\t// in\n    tag_94:\n        /* \"contracts/andrei/projects/auction.sol\":1958:1961  min */\n      tag_91\n        /* \"contracts/andrei/projects/auction.sol\":1958:2008  min(currentBid,bids[highestBidder] + bidIncrement) */\n      jump\t// in\n    tag_93:\n        /* \"contracts/andrei/projects/auction.sol\":1938:1955  highestBindingBid */\n      0x05\n        /* \"contracts/andrei/projects/auction.sol\":1938:2008  highestBindingBid = min(currentBid,bids[highestBidder] + bidIncrement) */\n      dup2\n      swap1\n      sstore\n      pop\n        /* \"contracts/andrei/projects/auction.sol\":2042:2052  msg.sender */\n      caller\n        /* \"contracts/andrei/projects/auction.sol\":2018:2031  highestBidder */\n      0x06\n      0x00\n        /* \"contracts/andrei/projects/auction.sol\":2018:2053  highestBidder = payable(msg.sender) */\n      0x0100\n      exp\n      dup2\n      sload\n      dup2\n      0xffffffffffffffffffffffffffffffffffffffff\n      mul\n      not\n      and\n      swap1\n      dup4\n      0xffffffffffffffffffffffffffffffffffffffff\n      and\n      mul\n      or\n      swap1\n      sstore\n      pop\n        /* \"contracts/andrei/projects/auction.sol\":1795:2060  if(currentBid <= bids[highestBidder]){... */\n    tag_92:\n        /* \"contracts/andrei/projects/auction.sol\":1575:2065  {... */\n      pop\n        /* \"contracts/andrei/projects/auction.sol\":1511:2065  function placeBid() public payable notOwner afterStart beforeEnd{... */\n      jump\t// out\n        /* \"contracts/andrei/projects/auction.sol\":490:519  uint public highestBindingBid */\n    tag_55:\n      sload(0x05)\n      dup2\n      jump\t// out\n        /* \"contracts/andrei/projects/auction.sol\":2070:3106  function finalizeAuction() public{... */\n    tag_59:\n        /* \"contracts/andrei/projects/auction.sol\":2136:2150  State.Canceled */\n      0x03\n        /* \"contracts/andrei/projects/auction.sol\":2120:2150  auctionState == State.Canceled */\n      dup1\n      dup2\n      gt\n      iszero\n      tag_96\n      jumpi\n      tag_97\n      tag_65\n      jump\t// in\n    tag_97:\n    tag_96:\n        /* \"contracts/andrei/projects/auction.sol\":2120:2132  auctionState */\n      0x04\n      0x00\n      swap1\n      sload\n      swap1\n      0x0100\n      exp\n      swap1\n      div\n      0xff\n      and\n        /* \"contracts/andrei/projects/auction.sol\":2120:2150  auctionState == State.Canceled */\n      0x03\n      dup2\n      gt\n      iszero\n      tag_98\n      jumpi\n      tag_99\n      tag_65\n      jump\t// in\n    tag_99:\n    tag_98:\n      eq\n        /* \"contracts/andrei/projects/auction.sol\":2120:2177  auctionState == State.Canceled || block.number > endBlock */\n      dup1\n      tag_100\n      jumpi\n      pop\n        /* \"contracts/andrei/projects/auction.sol\":2169:2177  endBlock */\n      sload(0x02)\n        /* \"contracts/andrei/projects/auction.sol\":2154:2166  block.number */\n      number\n        /* \"contracts/andrei/projects/auction.sol\":2154:2177  block.number > endBlock */\n      gt\n        /* \"contracts/andrei/projects/auction.sol\":2120:2177  auctionState == State.Canceled || block.number > endBlock */\n    tag_100:\n        /* \"contracts/andrei/projects/auction.sol\":2112:2178  require(auctionState == State.Canceled || block.number > endBlock) */\n      tag_101\n      jumpi\n      0x00\n      dup1\n      revert\n    tag_101:\n        /* \"contracts/andrei/projects/auction.sol\":2209:2214  owner */\n      0x00\n      dup1\n      sload\n      swap1\n      0x0100\n      exp\n      swap1\n      div\n      0xffffffffffffffffffffffffffffffffffffffff\n      and\n        /* \"contracts/andrei/projects/auction.sol\":2195:2214  msg.sender == owner */\n      0xffffffffffffffffffffffffffffffffffffffff\n      and\n        /* \"contracts/andrei/projects/auction.sol\":2195:2205  msg.sender */\n      caller\n        /* \"contracts/andrei/projects/auction.sol\":2195:2214  msg.sender == owner */\n      0xffffffffffffffffffffffffffffffffffffffff\n      and\n      eq\n        /* \"contracts/andrei/projects/auction.sol\":2195:2238  msg.sender == owner || bids[msg.sender] > 0 */\n      dup1\n      tag_102\n      jumpi\n      pop\n        /* \"contracts/andrei/projects/auction.sol\":2237:2238  0 */\n      0x00\n        /* \"contracts/andrei/projects/auction.sol\":2218:2222  bids */\n      0x07\n        /* \"contracts/andrei/projects/auction.sol\":2218:2234  bids[msg.sender] */\n      0x00\n        /* \"contracts/andrei/projects/auction.sol\":2223:2233  msg.sender */\n      caller\n        /* \"contracts/andrei/projects/auction.sol\":2218:2234  bids[msg.sender] */\n      0xffffffffffffffffffffffffffffffffffffffff\n      and\n      0xffffffffffffffffffffffffffffffffffffffff\n      and\n      dup2\n      mstore\n      0x20\n      add\n      swap1\n      dup2\n      mstore\n      0x20\n      add\n      0x00\n      keccak256\n      sload\n        /* \"contracts/andrei/projects/auction.sol\":2218:2238  bids[msg.sender] > 0 */\n      gt\n        /* \"contracts/andrei/projects/auction.sol\":2195:2238  msg.sender == owner || bids[msg.sender] > 0 */\n    tag_102:\n        /* \"contracts/andrei/projects/auction.sol\":2187:2239  require(msg.sender == owner || bids[msg.sender] > 0) */\n      tag_103\n      jumpi\n      0x00\n      dup1\n      revert\n    tag_103:\n        /* \"contracts/andrei/projects/auction.sol\":2249:2274  address payable recipient */\n      0x00\n        /* \"contracts/andrei/projects/auction.sol\":2283:2293  uint value */\n      dup1\n        /* \"contracts/andrei/projects/auction.sol\":2322:2336  State.Canceled */\n      0x03\n        /* \"contracts/andrei/projects/auction.sol\":2306:2336  auctionState == State.Canceled */\n      dup1\n      dup2\n      gt\n      iszero\n      tag_104\n      jumpi\n      tag_105\n      tag_65\n      jump\t// in\n    tag_105:\n    tag_104:\n        /* \"contracts/andrei/projects/auction.sol\":2306:2318  auctionState */\n      0x04\n      0x00\n      swap1\n      sload\n      swap1\n      0x0100\n      exp\n      swap1\n      div\n      0xff\n      and\n        /* \"contracts/andrei/projects/auction.sol\":2306:2336  auctionState == State.Canceled */\n      0x03\n      dup2\n      gt\n      iszero\n      tag_106\n      jumpi\n      tag_107\n      tag_65\n      jump\t// in\n    tag_107:\n    tag_106:\n      sub\n        /* \"contracts/andrei/projects/auction.sol\":2303:2985  if(auctionState == State.Canceled){ // auction was cancelled... */\n      tag_108\n      jumpi\n        /* \"contracts/andrei/projects/auction.sol\":2395:2405  msg.sender */\n      caller\n        /* \"contracts/andrei/projects/auction.sol\":2375:2406  recipient = payable(msg.sender) */\n      swap2\n      pop\n        /* \"contracts/andrei/projects/auction.sol\":2427:2431  bids */\n      0x07\n        /* \"contracts/andrei/projects/auction.sol\":2427:2443  bids[msg.sender] */\n      0x00\n        /* \"contracts/andrei/projects/auction.sol\":2432:2442  msg.sender */\n      caller\n        /* \"contracts/andrei/projects/auction.sol\":2427:2443  bids[msg.sender] */\n      0xffffffffffffffffffffffffffffffffffffffff\n      and\n      0xffffffffffffffffffffffffffffffffffffffff\n      and\n      dup2\n      mstore\n      0x20\n      add\n      swap1\n      dup2\n      mstore\n      0x20\n      add\n      0x00\n      keccak256\n      sload\n        /* \"contracts/andrei/projects/auction.sol\":2419:2443  value = bids[msg.sender] */\n      swap1\n      pop\n        /* \"contracts/andrei/projects/auction.sol\":2303:2985  if(auctionState == State.Canceled){ // auction was cancelled... */\n      jump(tag_109)\n    tag_108:\n        /* \"contracts/andrei/projects/auction.sol\":2518:2523  owner */\n      0x00\n      dup1\n      sload\n      swap1\n      0x0100\n      exp\n      swap1\n      div\n      0xffffffffffffffffffffffffffffffffffffffff\n      and\n        /* \"contracts/andrei/projects/auction.sol\":2504:2523  msg.sender == owner */\n      0xffffffffffffffffffffffffffffffffffffffff\n      and\n        /* \"contracts/andrei/projects/auction.sol\":2504:2514  msg.sender */\n      caller\n        /* \"contracts/andrei/projects/auction.sol\":2504:2523  msg.sender == owner */\n      0xffffffffffffffffffffffffffffffffffffffff\n      and\n      sub\n        /* \"contracts/andrei/projects/auction.sol\":2501:2976  if(msg.sender == owner){ ... */\n      tag_110\n      jumpi\n        /* \"contracts/andrei/projects/auction.sol\":2554:2559  owner */\n      0x00\n      dup1\n      sload\n      swap1\n      0x0100\n      exp\n      swap1\n      div\n      0xffffffffffffffffffffffffffffffffffffffff\n      and\n        /* \"contracts/andrei/projects/auction.sol\":2542:2559  recipient = owner */\n      swap2\n      pop\n        /* \"contracts/andrei/projects/auction.sol\":2584:2601  highestBindingBid */\n      sload(0x05)\n        /* \"contracts/andrei/projects/auction.sol\":2576:2601  value = highestBindingBid */\n      swap1\n      pop\n        /* \"contracts/andrei/projects/auction.sol\":2501:2976  if(msg.sender == owner){ ... */\n      jump(tag_111)\n    tag_110:\n        /* \"contracts/andrei/projects/auction.sol\":2670:2683  highestBidder */\n      0x06\n      0x00\n      swap1\n      sload\n      swap1\n      0x0100\n      exp\n      swap1\n      div\n      0xffffffffffffffffffffffffffffffffffffffff\n      and\n        /* \"contracts/andrei/projects/auction.sol\":2656:2683  msg.sender == highestBidder */\n      0xffffffffffffffffffffffffffffffffffffffff\n      and\n        /* \"contracts/andrei/projects/auction.sol\":2656:2666  msg.sender */\n      caller\n        /* \"contracts/andrei/projects/auction.sol\":2656:2683  msg.sender == highestBidder */\n      0xffffffffffffffffffffffffffffffffffffffff\n      and\n      sub\n        /* \"contracts/andrei/projects/auction.sol\":2653:2964  if(msg.sender == highestBidder){... */\n      tag_112\n      jumpi\n        /* \"contracts/andrei/projects/auction.sol\":2715:2728  highestBidder */\n      0x06\n      0x00\n      swap1\n      sload\n      swap1\n      0x0100\n      exp\n      swap1\n      div\n      0xffffffffffffffffffffffffffffffffffffffff\n      and\n        /* \"contracts/andrei/projects/auction.sol\":2703:2728  recipient = highestBidder */\n      swap2\n      pop\n        /* \"contracts/andrei/projects/auction.sol\":2777:2794  highestBindingBid */\n      sload(0x05)\n        /* \"contracts/andrei/projects/auction.sol\":2755:2759  bids */\n      0x07\n        /* \"contracts/andrei/projects/auction.sol\":2755:2774  bids[highestBidder] */\n      0x00\n        /* \"contracts/andrei/projects/auction.sol\":2760:2773  highestBidder */\n      0x06\n      0x00\n      swap1\n      sload\n      swap1\n      0x0100\n      exp\n      swap1\n      div\n      0xffffffffffffffffffffffffffffffffffffffff\n      and\n        /* \"contracts/andrei/projects/auction.sol\":2755:2774  bids[highestBidder] */\n      0xffffffffffffffffffffffffffffffffffffffff\n      and\n      0xffffffffffffffffffffffffffffffffffffffff\n      and\n      dup2\n      mstore\n      0x20\n      add\n      swap1\n      dup2\n      mstore\n      0x20\n      add\n      0x00\n      keccak256\n      sload\n        /* \"contracts/andrei/projects/auction.sol\":2755:2794  bids[highestBidder] - highestBindingBid */\n      tag_113\n      swap2\n      swap1\n      tag_114\n      jump\t// in\n    tag_113:\n        /* \"contracts/andrei/projects/auction.sol\":2747:2794  value = bids[highestBidder] - highestBindingBid */\n      swap1\n      pop\n        /* \"contracts/andrei/projects/auction.sol\":2653:2964  if(msg.sender == highestBidder){... */\n      jump(tag_115)\n    tag_112:\n        /* \"contracts/andrei/projects/auction.sol\":2900:2910  msg.sender */\n      caller\n        /* \"contracts/andrei/projects/auction.sol\":2880:2911  recipient = payable(msg.sender) */\n      swap2\n      pop\n        /* \"contracts/andrei/projects/auction.sol\":2932:2936  bids */\n      0x07\n        /* \"contracts/andrei/projects/auction.sol\":2932:2948  bids[msg.sender] */\n      0x00\n        /* \"contracts/andrei/projects/auction.sol\":2937:2947  msg.sender */\n      caller\n        /* \"contracts/andrei/projects/auction.sol\":2932:2948  bids[msg.sender] */\n      0xffffffffffffffffffffffffffffffffffffffff\n      and\n      0xffffffffffffffffffffffffffffffffffffffff\n      and\n      dup2\n      mstore\n      0x20\n      add\n      swap1\n      dup2\n      mstore\n      0x20\n      add\n      0x00\n      keccak256\n      sload\n        /* \"contracts/andrei/projects/auction.sol\":2926:2948  value=bids[msg.sender] */\n      swap1\n      pop\n        /* \"contracts/andrei/projects/auction.sol\":2653:2964  if(msg.sender == highestBidder){... */\n    tag_115:\n        /* \"contracts/andrei/projects/auction.sol\":2501:2976  if(msg.sender == owner){ ... */\n    tag_111:\n        /* \"contracts/andrei/projects/auction.sol\":2303:2985  if(auctionState == State.Canceled){ // auction was cancelled... */\n    tag_109:\n        /* \"contracts/andrei/projects/auction.sol\":3064:3065  0 */\n      0x00\n        /* \"contracts/andrei/projects/auction.sol\":3046:3050  bids */\n      0x07\n        /* \"contracts/andrei/projects/auction.sol\":3046:3061  bids[recipient] */\n      0x00\n        /* \"contracts/andrei/projects/auction.sol\":3051:3060  recipient */\n      dup5\n        /* \"contracts/andrei/projects/auction.sol\":3046:3061  bids[recipient] */\n      0xffffffffffffffffffffffffffffffffffffffff\n      and\n      0xffffffffffffffffffffffffffffffffffffffff\n      and\n      dup2\n      mstore\n      0x20\n      add\n      swap1\n      dup2\n      mstore\n      0x20\n      add\n      0x00\n      keccak256\n        /* \"contracts/andrei/projects/auction.sol\":3046:3065  bids[recipient] = 0 */\n      dup2\n      swap1\n      sstore\n      pop\n        /* \"contracts/andrei/projects/auction.sol\":3075:3084  recipient */\n      dup2\n        /* \"contracts/andrei/projects/auction.sol\":3075:3093  recipient.transfer */\n      0xffffffffffffffffffffffffffffffffffffffff\n      and\n        /* \"contracts/andrei/projects/auction.sol\":3075:3100  recipient.transfer(value) */\n      0x08fc\n        /* \"contracts/andrei/projects/auction.sol\":3094:3099  value */\n      dup3\n        /* \"contracts/andrei/projects/auction.sol\":3075:3100  recipient.transfer(value) */\n      swap1\n      dup2\n      iszero\n      mul\n      swap1\n      mload(0x40)\n      0x00\n      mload(0x40)\n      dup1\n      dup4\n      sub\n      dup2\n      dup6\n      dup9\n      dup9\n      call\n      swap4\n      pop\n      pop\n      pop\n      pop\n      iszero\n      dup1\n      iszero\n      tag_117\n      jumpi\n      returndatasize\n      0x00\n      dup1\n      returndatacopy\n      revert(0x00, returndatasize)\n    tag_117:\n      pop\n        /* \"contracts/andrei/projects/auction.sol\":2103:3106  {... */\n      pop\n      pop\n        /* \"contracts/andrei/projects/auction.sol\":2070:3106  function finalizeAuction() public{... */\n      jump\t// out\n        /* \"contracts/andrei/projects/auction.sol\":1239:1397  function min(uint a, uint b) pure internal returns(uint){... */\n    tag_91:\n        /* \"contracts/andrei/projects/auction.sol\":1290:1294  uint */\n      0x00\n        /* \"contracts/andrei/projects/auction.sol\":1314:1315  b */\n      dup2\n        /* \"contracts/andrei/projects/auction.sol\":1309:1310  a */\n      dup4\n        /* \"contracts/andrei/projects/auction.sol\":1309:1315  a <= b */\n      gt\n        /* \"contracts/andrei/projects/auction.sol\":1306:1390  if(a <= b){... */\n      tag_119\n      jumpi\n        /* \"contracts/andrei/projects/auction.sol\":1338:1339  a */\n      dup3\n        /* \"contracts/andrei/projects/auction.sol\":1331:1339  return a */\n      swap1\n      pop\n      jump(tag_118)\n        /* \"contracts/andrei/projects/auction.sol\":1306:1390  if(a <= b){... */\n    tag_119:\n        /* \"contracts/andrei/projects/auction.sol\":1377:1378  b */\n      dup2\n        /* \"contracts/andrei/projects/auction.sol\":1370:1378  return b */\n      swap1\n      pop\n        /* \"contracts/andrei/projects/auction.sol\":1239:1397  function min(uint a, uint b) pure internal returns(uint){... */\n    tag_118:\n      swap3\n      swap2\n      pop\n      pop\n      jump\t// out\n        /* \"#utility.yul\":7:84   */\n    tag_121:\n        /* \"#utility.yul\":44:51   */\n      0x00\n        /* \"#utility.yul\":73:78   */\n      dup2\n        /* \"#utility.yul\":62:78   */\n      swap1\n      pop\n        /* \"#utility.yul\":7:84   */\n      swap2\n      swap1\n      pop\n      jump\t// out\n        /* \"#utility.yul\":90:208   */\n    tag_122:\n        /* \"#utility.yul\":177:201   */\n      tag_146\n        /* \"#utility.yul\":195:200   */\n      dup2\n        /* \"#utility.yul\":177:201   */\n      tag_121\n      jump\t// in\n    tag_146:\n        /* \"#utility.yul\":172:175   */\n      dup3\n        /* \"#utility.yul\":165:202   */\n      mstore\n        /* \"#utility.yul\":90:208   */\n      pop\n      pop\n      jump\t// out\n        /* \"#utility.yul\":214:436   */\n    tag_18:\n        /* \"#utility.yul\":307:311   */\n      0x00\n        /* \"#utility.yul\":345:347   */\n      0x20\n        /* \"#utility.yul\":334:343   */\n      dup3\n        /* \"#utility.yul\":330:348   */\n      add\n        /* \"#utility.yul\":322:348   */\n      swap1\n      pop\n        /* \"#utility.yul\":358:429   */\n      tag_148\n        /* \"#utility.yul\":426:427   */\n      0x00\n        /* \"#utility.yul\":415:424   */\n      dup4\n        /* \"#utility.yul\":411:428   */\n      add\n        /* \"#utility.yul\":402:408   */\n      dup5\n        /* \"#utility.yul\":358:429   */\n      tag_122\n      jump\t// in\n    tag_148:\n        /* \"#utility.yul\":214:436   */\n      swap3\n      swap2\n      pop\n      pop\n      jump\t// out\n        /* \"#utility.yul\":523:640   */\n    tag_124:\n        /* \"#utility.yul\":632:633   */\n      0x00\n        /* \"#utility.yul\":629:630   */\n      dup1\n        /* \"#utility.yul\":622:634   */\n      revert\n        /* \"#utility.yul\":769:895   */\n    tag_126:\n        /* \"#utility.yul\":806:813   */\n      0x00\n        /* \"#utility.yul\":846:888   */\n      0xffffffffffffffffffffffffffffffffffffffff\n        /* \"#utility.yul\":839:844   */\n      dup3\n        /* \"#utility.yul\":835:889   */\n      and\n        /* \"#utility.yul\":824:889   */\n      swap1\n      pop\n        /* \"#utility.yul\":769:895   */\n      swap2\n      swap1\n      pop\n      jump\t// out\n        /* \"#utility.yul\":901:997   */\n    tag_127:\n        /* \"#utility.yul\":938:945   */\n      0x00\n        /* \"#utility.yul\":967:991   */\n      tag_154\n        /* \"#utility.yul\":985:990   */\n      dup3\n        /* \"#utility.yul\":967:991   */\n      tag_126\n      jump\t// in\n    tag_154:\n        /* \"#utility.yul\":956:991   */\n      swap1\n      pop\n        /* \"#utility.yul\":901:997   */\n      swap2\n      swap1\n      pop\n      jump\t// out\n        /* \"#utility.yul\":1003:1125   */\n    tag_128:\n        /* \"#utility.yul\":1076:1100   */\n      tag_156\n        /* \"#utility.yul\":1094:1099   */\n      dup2\n        /* \"#utility.yul\":1076:1100   */\n      tag_127\n      jump\t// in\n    tag_156:\n        /* \"#utility.yul\":1069:1074   */\n      dup2\n        /* \"#utility.yul\":1066:1101   */\n      eq\n        /* \"#utility.yul\":1056:1119   */\n      tag_157\n      jumpi\n        /* \"#utility.yul\":1115:1116   */\n      0x00\n        /* \"#utility.yul\":1112:1113   */\n      dup1\n        /* \"#utility.yul\":1105:1117   */\n      revert\n        /* \"#utility.yul\":1056:1119   */\n    tag_157:\n        /* \"#utility.yul\":1003:1125   */\n      pop\n      jump\t// out\n        /* \"#utility.yul\":1131:1270   */\n    tag_129:\n        /* \"#utility.yul\":1177:1182   */\n      0x00\n        /* \"#utility.yul\":1215:1221   */\n      dup2\n        /* \"#utility.yul\":1202:1222   */\n      calldataload\n        /* \"#utility.yul\":1193:1222   */\n      swap1\n      pop\n        /* \"#utility.yul\":1231:1264   */\n      tag_159\n        /* \"#utility.yul\":1258:1263   */\n      dup2\n        /* \"#utility.yul\":1231:1264   */\n      tag_128\n      jump\t// in\n    tag_159:\n        /* \"#utility.yul\":1131:1270   */\n      swap3\n      swap2\n      pop\n      pop\n      jump\t// out\n        /* \"#utility.yul\":1276:1605   */\n    tag_26:\n        /* \"#utility.yul\":1335:1341   */\n      0x00\n        /* \"#utility.yul\":1384:1386   */\n      0x20\n        /* \"#utility.yul\":1372:1381   */\n      dup3\n        /* \"#utility.yul\":1363:1370   */\n      dup5\n        /* \"#utility.yul\":1359:1382   */\n      sub\n        /* \"#utility.yul\":1355:1387   */\n      slt\n        /* \"#utility.yul\":1352:1471   */\n      iszero\n      tag_161\n      jumpi\n        /* \"#utility.yul\":1390:1469   */\n      tag_162\n      tag_124\n      jump\t// in\n    tag_162:\n        /* \"#utility.yul\":1352:1471   */\n    tag_161:\n        /* \"#utility.yul\":1510:1511   */\n      0x00\n        /* \"#utility.yul\":1535:1588   */\n      tag_163\n        /* \"#utility.yul\":1580:1587   */\n      dup5\n        /* \"#utility.yul\":1571:1577   */\n      dup3\n        /* \"#utility.yul\":1560:1569   */\n      dup6\n        /* \"#utility.yul\":1556:1578   */\n      add\n        /* \"#utility.yul\":1535:1588   */\n      tag_129\n      jump\t// in\n    tag_163:\n        /* \"#utility.yul\":1525:1588   */\n      swap2\n      pop\n        /* \"#utility.yul\":1481:1598   */\n      pop\n        /* \"#utility.yul\":1276:1605   */\n      swap3\n      swap2\n      pop\n      pop\n      jump\t// out\n        /* \"#utility.yul\":1611:1791   */\n    tag_65:\n        /* \"#utility.yul\":1659:1736   */\n      0x4e487b7100000000000000000000000000000000000000000000000000000000\n        /* \"#utility.yul\":1656:1657   */\n      0x00\n        /* \"#utility.yul\":1649:1737   */\n      mstore\n        /* \"#utility.yul\":1756:1760   */\n      0x21\n        /* \"#utility.yul\":1753:1754   */\n      0x04\n        /* \"#utility.yul\":1746:1761   */\n      mstore\n        /* \"#utility.yul\":1780:1784   */\n      0x24\n        /* \"#utility.yul\":1777:1778   */\n      0x00\n        /* \"#utility.yul\":1770:1785   */\n      revert\n        /* \"#utility.yul\":1797:1910   */\n    tag_130:\n        /* \"#utility.yul\":1878:1879   */\n      0x04\n        /* \"#utility.yul\":1871:1876   */\n      dup2\n        /* \"#utility.yul\":1868:1880   */\n      lt\n        /* \"#utility.yul\":1858:1904   */\n      tag_166\n      jumpi\n        /* \"#utility.yul\":1884:1902   */\n      tag_167\n      tag_65\n      jump\t// in\n    tag_167:\n        /* \"#utility.yul\":1858:1904   */\n    tag_166:\n        /* \"#utility.yul\":1797:1910   */\n      pop\n      jump\t// out\n        /* \"#utility.yul\":1916:2043   */\n    tag_131:\n        /* \"#utility.yul\":1961:1968   */\n      0x00\n        /* \"#utility.yul\":1990:1995   */\n      dup2\n        /* \"#utility.yul\":1979:1995   */\n      swap1\n      pop\n        /* \"#utility.yul\":1996:2037   */\n      tag_169\n        /* \"#utility.yul\":2031:2036   */\n      dup3\n        /* \"#utility.yul\":1996:2037   */\n      tag_130\n      jump\t// in\n    tag_169:\n        /* \"#utility.yul\":1916:2043   */\n      swap2\n      swap1\n      pop\n      jump\t// out\n        /* \"#utility.yul\":2049:2176   */\n    tag_132:\n        /* \"#utility.yul\":2105:2114   */\n      0x00\n        /* \"#utility.yul\":2138:2170   */\n      tag_171\n        /* \"#utility.yul\":2164:2169   */\n      dup3\n        /* \"#utility.yul\":2138:2170   */\n      tag_131\n      jump\t// in\n    tag_171:\n        /* \"#utility.yul\":2125:2170   */\n      swap1\n      pop\n        /* \"#utility.yul\":2049:2176   */\n      swap2\n      swap1\n      pop\n      jump\t// out\n        /* \"#utility.yul\":2182:2325   */\n    tag_133:\n        /* \"#utility.yul\":2275:2318   */\n      tag_173\n        /* \"#utility.yul\":2312:2317   */\n      dup2\n        /* \"#utility.yul\":2275:2318   */\n      tag_132\n      jump\t// in\n    tag_173:\n        /* \"#utility.yul\":2270:2273   */\n      dup3\n        /* \"#utility.yul\":2263:2319   */\n      mstore\n        /* \"#utility.yul\":2182:2325   */\n      pop\n      pop\n      jump\t// out\n        /* \"#utility.yul\":2331:2565   */\n    tag_33:\n        /* \"#utility.yul\":2430:2434   */\n      0x00\n        /* \"#utility.yul\":2468:2470   */\n      0x20\n        /* \"#utility.yul\":2457:2466   */\n      dup3\n        /* \"#utility.yul\":2453:2471   */\n      add\n        /* \"#utility.yul\":2445:2471   */\n      swap1\n      pop\n        /* \"#utility.yul\":2481:2558   */\n      tag_175\n        /* \"#utility.yul\":2555:2556   */\n      0x00\n        /* \"#utility.yul\":2544:2553   */\n      dup4\n        /* \"#utility.yul\":2540:2557   */\n      add\n        /* \"#utility.yul\":2531:2537   */\n      dup5\n        /* \"#utility.yul\":2481:2558   */\n      tag_133\n      jump\t// in\n    tag_175:\n        /* \"#utility.yul\":2331:2565   */\n      swap3\n      swap2\n      pop\n      pop\n      jump\t// out\n        /* \"#utility.yul\":2571:2675   */\n    tag_134:\n        /* \"#utility.yul\":2616:2623   */\n      0x00\n        /* \"#utility.yul\":2645:2669   */\n      tag_177\n        /* \"#utility.yul\":2663:2668   */\n      dup3\n        /* \"#utility.yul\":2645:2669   */\n      tag_126\n      jump\t// in\n    tag_177:\n        /* \"#utility.yul\":2634:2669   */\n      swap1\n      pop\n        /* \"#utility.yul\":2571:2675   */\n      swap2\n      swap1\n      pop\n      jump\t// out\n        /* \"#utility.yul\":2681:2823   */\n    tag_135:\n        /* \"#utility.yul\":2784:2816   */\n      tag_179\n        /* \"#utility.yul\":2810:2815   */\n      dup2\n        /* \"#utility.yul\":2784:2816   */\n      tag_134\n      jump\t// in\n    tag_179:\n        /* \"#utility.yul\":2779:2782   */\n      dup3\n        /* \"#utility.yul\":2772:2817   */\n      mstore\n        /* \"#utility.yul\":2681:2823   */\n      pop\n      pop\n      jump\t// out\n        /* \"#utility.yul\":2829:3083   */\n    tag_38:\n        /* \"#utility.yul\":2938:2942   */\n      0x00\n        /* \"#utility.yul\":2976:2978   */\n      0x20\n        /* \"#utility.yul\":2965:2974   */\n      dup3\n        /* \"#utility.yul\":2961:2979   */\n      add\n        /* \"#utility.yul\":2953:2979   */\n      swap1\n      pop\n        /* \"#utility.yul\":2989:3076   */\n      tag_181\n        /* \"#utility.yul\":3073:3074   */\n      0x00\n        /* \"#utility.yul\":3062:3071   */\n      dup4\n        /* \"#utility.yul\":3058:3075   */\n      add\n        /* \"#utility.yul\":3049:3055   */\n      dup5\n        /* \"#utility.yul\":2989:3076   */\n      tag_135\n      jump\t// in\n    tag_181:\n        /* \"#utility.yul\":2829:3083   */\n      swap3\n      swap2\n      pop\n      pop\n      jump\t// out\n        /* \"#utility.yul\":3089:3188   */\n    tag_136:\n        /* \"#utility.yul\":3141:3147   */\n      0x00\n        /* \"#utility.yul\":3175:3180   */\n      dup2\n        /* \"#utility.yul\":3169:3181   */\n      mload\n        /* \"#utility.yul\":3159:3181   */\n      swap1\n      pop\n        /* \"#utility.yul\":3089:3188   */\n      swap2\n      swap1\n      pop\n      jump\t// out\n        /* \"#utility.yul\":3194:3363   */\n    tag_137:\n        /* \"#utility.yul\":3278:3289   */\n      0x00\n        /* \"#utility.yul\":3312:3318   */\n      dup3\n        /* \"#utility.yul\":3307:3310   */\n      dup3\n        /* \"#utility.yul\":3300:3319   */\n      mstore\n        /* \"#utility.yul\":3352:3356   */\n      0x20\n        /* \"#utility.yul\":3347:3350   */\n      dup3\n        /* \"#utility.yul\":3343:3357   */\n      add\n        /* \"#utility.yul\":3328:3357   */\n      swap1\n      pop\n        /* \"#utility.yul\":3194:3363   */\n      swap3\n      swap2\n      pop\n      pop\n      jump\t// out\n        /* \"#utility.yul\":3369:3615   */\n    tag_138:\n        /* \"#utility.yul\":3450:3451   */\n      0x00\n        /* \"#utility.yul\":3460:3573   */\n    tag_185:\n        /* \"#utility.yul\":3474:3480   */\n      dup4\n        /* \"#utility.yul\":3471:3472   */\n      dup2\n        /* \"#utility.yul\":3468:3481   */\n      lt\n        /* \"#utility.yul\":3460:3573   */\n      iszero\n      tag_187\n      jumpi\n        /* \"#utility.yul\":3559:3560   */\n      dup1\n        /* \"#utility.yul\":3554:3557   */\n      dup3\n        /* \"#utility.yul\":3550:3561   */\n      add\n        /* \"#utility.yul\":3544:3562   */\n      mload\n        /* \"#utility.yul\":3540:3541   */\n      dup2\n        /* \"#utility.yul\":3535:3538   */\n      dup5\n        /* \"#utility.yul\":3531:3542   */\n      add\n        /* \"#utility.yul\":3524:3563   */\n      mstore\n        /* \"#utility.yul\":3496:3498   */\n      0x20\n        /* \"#utility.yul\":3493:3494   */\n      dup2\n        /* \"#utility.yul\":3489:3499   */\n      add\n        /* \"#utility.yul\":3484:3499   */\n      swap1\n      pop\n        /* \"#utility.yul\":3460:3573   */\n      jump(tag_185)\n    tag_187:\n        /* \"#utility.yul\":3607:3608   */\n      0x00\n        /* \"#utility.yul\":3598:3604   */\n      dup5\n        /* \"#utility.yul\":3593:3596   */\n      dup5\n        /* \"#utility.yul\":3589:3605   */\n      add\n        /* \"#utility.yul\":3582:3609   */\n      mstore\n        /* \"#utility.yul\":3431:3615   */\n      pop\n        /* \"#utility.yul\":3369:3615   */\n      pop\n      pop\n      pop\n      jump\t// out\n        /* \"#utility.yul\":3621:3723   */\n    tag_139:\n        /* \"#utility.yul\":3662:3668   */\n      0x00\n        /* \"#utility.yul\":3713:3715   */\n      0x1f\n        /* \"#utility.yul\":3709:3716   */\n      not\n        /* \"#utility.yul\":3704:3706   */\n      0x1f\n        /* \"#utility.yul\":3697:3702   */\n      dup4\n        /* \"#utility.yul\":3693:3707   */\n      add\n        /* \"#utility.yul\":3689:3717   */\n      and\n        /* \"#utility.yul\":3679:3717   */\n      swap1\n      pop\n        /* \"#utility.yul\":3621:3723   */\n      swap2\n      swap1\n      pop\n      jump\t// out\n        /* \"#utility.yul\":3729:4106   */\n    tag_140:\n        /* \"#utility.yul\":3817:3820   */\n      0x00\n        /* \"#utility.yul\":3845:3884   */\n      tag_190\n        /* \"#utility.yul\":3878:3883   */\n      dup3\n        /* \"#utility.yul\":3845:3884   */\n      tag_136\n      jump\t// in\n    tag_190:\n        /* \"#utility.yul\":3900:3971   */\n      tag_191\n        /* \"#utility.yul\":3964:3970   */\n      dup2\n        /* \"#utility.yul\":3959:3962   */\n      dup6\n        /* \"#utility.yul\":3900:3971   */\n      tag_137\n      jump\t// in\n    tag_191:\n        /* \"#utility.yul\":3893:3971   */\n      swap4\n      pop\n        /* \"#utility.yul\":3980:4045   */\n      tag_192\n        /* \"#utility.yul\":4038:4044   */\n      dup2\n        /* \"#utility.yul\":4033:4036   */\n      dup6\n        /* \"#utility.yul\":4026:4030   */\n      0x20\n        /* \"#utility.yul\":4019:4024   */\n      dup7\n        /* \"#utility.yul\":4015:4031   */\n      add\n        /* \"#utility.yul\":3980:4045   */\n      tag_138\n      jump\t// in\n    tag_192:\n        /* \"#utility.yul\":4070:4099   */\n      tag_193\n        /* \"#utility.yul\":4092:4098   */\n      dup2\n        /* \"#utility.yul\":4070:4099   */\n      tag_139\n      jump\t// in\n    tag_193:\n        /* \"#utility.yul\":4065:4068   */\n      dup5\n        /* \"#utility.yul\":4061:4100   */\n      add\n        /* \"#utility.yul\":4054:4100   */\n      swap2\n      pop\n        /* \"#utility.yul\":3821:4106   */\n      pop\n        /* \"#utility.yul\":3729:4106   */\n      swap3\n      swap2\n      pop\n      pop\n      jump\t// out\n        /* \"#utility.yul\":4112:4425   */\n    tag_50:\n        /* \"#utility.yul\":4225:4229   */\n      0x00\n        /* \"#utility.yul\":4263:4265   */\n      0x20\n        /* \"#utility.yul\":4252:4261   */\n      dup3\n        /* \"#utility.yul\":4248:4266   */\n      add\n        /* \"#utility.yul\":4240:4266   */\n      swap1\n      pop\n        /* \"#utility.yul\":4312:4321   */\n      dup2\n        /* \"#utility.yul\":4306:4310   */\n      dup2\n        /* \"#utility.yul\":4302:4322   */\n      sub\n        /* \"#utility.yul\":4298:4299   */\n      0x00\n        /* \"#utility.yul\":4287:4296   */\n      dup4\n        /* \"#utility.yul\":4283:4300   */\n      add\n        /* \"#utility.yul\":4276:4323   */\n      mstore\n        /* \"#utility.yul\":4340:4418   */\n      tag_195\n        /* \"#utility.yul\":4413:4417   */\n      dup2\n        /* \"#utility.yul\":4404:4410   */\n      dup5\n        /* \"#utility.yul\":4340:4418   */\n      tag_140\n      jump\t// in\n    tag_195:\n        /* \"#utility.yul\":4332:4418   */\n      swap1\n      pop\n        /* \"#utility.yul\":4112:4425   */\n      swap3\n      swap2\n      pop\n      pop\n      jump\t// out\n        /* \"#utility.yul\":4431:4611   */\n    tag_141:\n        /* \"#utility.yul\":4479:4556   */\n      0x4e487b7100000000000000000000000000000000000000000000000000000000\n        /* \"#utility.yul\":4476:4477   */\n      0x00\n        /* \"#utility.yul\":4469:4557   */\n      mstore\n        /* \"#utility.yul\":4576:4580   */\n      0x22\n        /* \"#utility.yul\":4573:4574   */\n      0x04\n        /* \"#utility.yul\":4566:4581   */\n      mstore\n        /* \"#utility.yul\":4600:4604   */\n      0x24\n        /* \"#utility.yul\":4597:4598   */\n      0x00\n        /* \"#utility.yul\":4590:4605   */\n      revert\n        /* \"#utility.yul\":4617:4937   */\n    tag_67:\n        /* \"#utility.yul\":4661:4667   */\n      0x00\n        /* \"#utility.yul\":4698:4699   */\n      0x02\n        /* \"#utility.yul\":4692:4696   */\n      dup3\n        /* \"#utility.yul\":4688:4700   */\n      div\n        /* \"#utility.yul\":4678:4700   */\n      swap1\n      pop\n        /* \"#utility.yul\":4745:4746   */\n      0x01\n        /* \"#utility.yul\":4739:4743   */\n      dup3\n        /* \"#utility.yul\":4735:4747   */\n      and\n        /* \"#utility.yul\":4766:4784   */\n      dup1\n        /* \"#utility.yul\":4756:4837   */\n      tag_198\n      jumpi\n        /* \"#utility.yul\":4822:4826   */\n      0x7f\n        /* \"#utility.yul\":4814:4820   */\n      dup3\n        /* \"#utility.yul\":4810:4827   */\n      and\n        /* \"#utility.yul\":4800:4827   */\n      swap2\n      pop\n        /* \"#utility.yul\":4756:4837   */\n    tag_198:\n        /* \"#utility.yul\":4884:4886   */\n      0x20\n        /* \"#utility.yul\":4876:4882   */\n      dup3\n        /* \"#utility.yul\":4873:4887   */\n      lt\n        /* \"#utility.yul\":4853:4871   */\n      dup2\n        /* \"#utility.yul\":4850:4888   */\n      sub\n        /* \"#utility.yul\":4847:4931   */\n      tag_199\n      jumpi\n        /* \"#utility.yul\":4903:4921   */\n      tag_200\n      tag_141\n      jump\t// in\n    tag_200:\n        /* \"#utility.yul\":4847:4931   */\n    tag_199:\n        /* \"#utility.yul\":4668:4937   */\n      pop\n        /* \"#utility.yul\":4617:4937   */\n      swap2\n      swap1\n      pop\n      jump\t// out\n        /* \"#utility.yul\":4943:5123   */\n    tag_142:\n        /* \"#utility.yul\":4991:5068   */\n      0x4e487b7100000000000000000000000000000000000000000000000000000000\n        /* \"#utility.yul\":4988:4989   */\n      0x00\n        /* \"#utility.yul\":4981:5069   */\n      mstore\n        /* \"#utility.yul\":5088:5092   */\n      0x11\n        /* \"#utility.yul\":5085:5086   */\n      0x04\n        /* \"#utility.yul\":5078:5093   */\n      mstore\n        /* \"#utility.yul\":5112:5116   */\n      0x24\n        /* \"#utility.yul\":5109:5110   */\n      0x00\n        /* \"#utility.yul\":5102:5117   */\n      revert\n        /* \"#utility.yul\":5129:5320   */\n    tag_86:\n        /* \"#utility.yul\":5169:5172   */\n      0x00\n        /* \"#utility.yul\":5188:5208   */\n      tag_203\n        /* \"#utility.yul\":5206:5207   */\n      dup3\n        /* \"#utility.yul\":5188:5208   */\n      tag_121\n      jump\t// in\n    tag_203:\n        /* \"#utility.yul\":5183:5208   */\n      swap2\n      pop\n        /* \"#utility.yul\":5222:5242   */\n      tag_204\n        /* \"#utility.yul\":5240:5241   */\n      dup4\n        /* \"#utility.yul\":5222:5242   */\n      tag_121\n      jump\t// in\n    tag_204:\n        /* \"#utility.yul\":5217:5242   */\n      swap3\n      pop\n        /* \"#utility.yul\":5265:5266   */\n      dup3\n        /* \"#utility.yul\":5262:5263   */\n      dup3\n        /* \"#utility.yul\":5258:5267   */\n      add\n        /* \"#utility.yul\":5251:5267   */\n      swap1\n      pop\n        /* \"#utility.yul\":5286:5289   */\n      dup1\n        /* \"#utility.yul\":5283:5284   */\n      dup3\n        /* \"#utility.yul\":5280:5290   */\n      gt\n        /* \"#utility.yul\":5277:5313   */\n      iszero\n      tag_205\n      jumpi\n        /* \"#utility.yul\":5293:5311   */\n      tag_206\n      tag_142\n      jump\t// in\n    tag_206:\n        /* \"#utility.yul\":5277:5313   */\n    tag_205:\n        /* \"#utility.yul\":5129:5320   */\n      swap3\n      swap2\n      pop\n      pop\n      jump\t// out\n        /* \"#utility.yul\":5326:5520   */\n    tag_114:\n        /* \"#utility.yul\":5366:5370   */\n      0x00\n        /* \"#utility.yul\":5386:5406   */\n      tag_208\n        /* \"#utility.yul\":5404:5405   */\n      dup3\n        /* \"#utility.yul\":5386:5406   */\n      tag_121\n      jump\t// in\n    tag_208:\n        /* \"#utility.yul\":5381:5406   */\n      swap2\n      pop\n        /* \"#utility.yul\":5420:5440   */\n      tag_209\n        /* \"#utility.yul\":5438:5439   */\n      dup4\n        /* \"#utility.yul\":5420:5440   */\n      tag_121\n      jump\t// in\n    tag_209:\n        /* \"#utility.yul\":5415:5440   */\n      swap3\n      pop\n        /* \"#utility.yul\":5464:5465   */\n      dup3\n        /* \"#utility.yul\":5461:5462   */\n      dup3\n        /* \"#utility.yul\":5457:5466   */\n      sub\n        /* \"#utility.yul\":5449:5466   */\n      swap1\n      pop\n        /* \"#utility.yul\":5488:5489   */\n      dup2\n        /* \"#utility.yul\":5482:5486   */\n      dup2\n        /* \"#utility.yul\":5479:5490   */\n      gt\n        /* \"#utility.yul\":5476:5513   */\n      iszero\n      tag_210\n      jumpi\n        /* \"#utility.yul\":5493:5511   */\n      tag_211\n      tag_142\n      jump\t// in\n    tag_211:\n        /* \"#utility.yul\":5476:5513   */\n    tag_210:\n        /* \"#utility.yul\":5326:5520   */\n      swap3\n      swap2\n      pop\n      pop\n      jump\t// out\n\n    auxdata: 0xa2646970667358221220ee7fab3780325837628c317d44c54fca49958507018ca35ddb8c40fd43c58fff64736f6c63430008120033\n}\n",
				"bytecode": {
					"linkReferences": {},
					"object": "60806040523480156200001157600080fd5b50604051620013d7380380620013d7833981810160405281019062000037919062000163565b806000806101000a81548173ffffffffffffffffffffffffffffffffffffffff021916908373ffffffffffffffffffffffffffffffffffffffff1602179055506001600460006101000a81548160ff02191690836003811115620000a0576200009f62000195565b5b021790555043600181905550619d8043620000bc9190620001fd565b6002819055506040518060200160405280600081525060039081620000e29190620004a8565b5067016345785d8a0000600881905550506200058f565b600080fd5b600073ffffffffffffffffffffffffffffffffffffffff82169050919050565b60006200012b82620000fe565b9050919050565b6200013d816200011e565b81146200014957600080fd5b50565b6000815190506200015d8162000132565b92915050565b6000602082840312156200017c576200017b620000f9565b5b60006200018c848285016200014c565b91505092915050565b7f4e487b7100000000000000000000000000000000000000000000000000000000600052602160045260246000fd5b6000819050919050565b7f4e487b7100000000000000000000000000000000000000000000000000000000600052601160045260246000fd5b60006200020a82620001c4565b91506200021783620001c4565b9250828201905080821115620002325762000231620001ce565b5b92915050565b600081519050919050565b7f4e487b7100000000000000000000000000000000000000000000000000000000600052604160045260246000fd5b7f4e487b7100000000000000000000000000000000000000000000000000000000600052602260045260246000fd5b60006002820490506001821680620002ba57607f821691505b602082108103620002d057620002cf62000272565b5b50919050565b60008190508160005260206000209050919050565b60006020601f8301049050919050565b600082821b905092915050565b6000600883026200033a7fffffffffffffffffffffffffffffffffffffffffffffffffffffffffffffffff82620002fb565b620003468683620002fb565b95508019841693508086168417925050509392505050565b6000819050919050565b600062000389620003836200037d84620001c4565b6200035e565b620001c4565b9050919050565b6000819050919050565b620003a58362000368565b620003bd620003b48262000390565b84845462000308565b825550505050565b600090565b620003d4620003c5565b620003e18184846200039a565b505050565b5b818110156200040957620003fd600082620003ca565b600181019050620003e7565b5050565b601f82111562000458576200042281620002d6565b6200042d84620002eb565b810160208510156200043d578190505b620004556200044c85620002eb565b830182620003e6565b50505b505050565b600082821c905092915050565b60006200047d600019846008026200045d565b1980831691505092915050565b60006200049883836200046a565b9150826002028217905092915050565b620004b38262000238565b67ffffffffffffffff811115620004cf57620004ce62000243565b5b620004db8254620002a1565b620004e88282856200040d565b600060209050601f8311600181146200052057600084156200050b578287015190505b6200051785826200048a565b86555062000587565b601f1984166200053086620002d6565b60005b828110156200055a5784890151825560018201915060208501945060208101905062000533565b868310156200057a578489015162000576601f8916826200046a565b8355505b6001600288020188555050505b505050505050565b610e38806200059f6000396000f3fe60806040526004361061009c5760003560e01c80638fa8b790116100645780638fa8b7901461018a57806391f90157146101a1578063c623674f146101cc578063ecfc7ecc146101f7578063f5b56c5614610201578063f77282ab1461022c5761009c565b8063083c6323146100a157806348cd4cb1146100cc57806362ea82db146100f75780637fb45099146101345780638da5cb5b1461015f575b600080fd5b3480156100ad57600080fd5b506100b6610243565b6040516100c39190610ae0565b60405180910390f35b3480156100d857600080fd5b506100e1610249565b6040516100ee9190610ae0565b60405180910390f35b34801561010357600080fd5b5061011e60048036038101906101199190610b5e565b61024f565b60405161012b9190610ae0565b60405180910390f35b34801561014057600080fd5b50610149610267565b6040516101569190610c02565b60405180910390f35b34801561016b57600080fd5b5061017461027a565b6040516101819190610c3e565b60405180910390f35b34801561019657600080fd5b5061019f61029e565b005b3480156101ad57600080fd5b506101b6610323565b6040516101c39190610c3e565b60405180910390f35b3480156101d857600080fd5b506101e1610349565b6040516101ee9190610ce9565b60405180910390f35b6101ff6103d7565b005b34801561020d57600080fd5b506102166106ea565b6040516102239190610ae0565b60405180910390f35b34801561023857600080fd5b506102416106f0565b005b60025481565b60015481565b60076020528060005260406000206000915090505481565b600460009054906101000a900460ff1681565b60008054906101000a900473ffffffffffffffffffffffffffffffffffffffff1681565b60008054906101000a900473ffffffffffffffffffffffffffffffffffffffff1673ffffffffffffffffffffffffffffffffffffffff163373ffffffffffffffffffffffffffffffffffffffff16146102f657600080fd5b6003600460006101000a81548160ff0219169083600381111561031c5761031b610b8b565b5b0217905550565b600660009054906101000a900473ffffffffffffffffffffffffffffffffffffffff1681565b6003805461035690610d3a565b80601f016020809104026020016040519081016040528092919081815260200182805461038290610d3a565b80156103cf5780601f106103a4576101008083540402835291602001916103cf565b820191906000526020600020905b8154815290600101906020018083116103b257829003601f168201915b505050505081565b60008054906101000a900473ffffffffffffffffffffffffffffffffffffffff1673ffffffffffffffffffffffffffffffffffffffff163373ffffffffffffffffffffffffffffffffffffffff160361042f57600080fd5b60015443101561043e57600080fd5b60025443111561044d57600080fd5b6001600381111561046157610460610b8b565b5b600460009054906101000a900460ff16600381111561048357610482610b8b565b5b1461048d57600080fd5b606434101561049b57600080fd5b600034600760003373ffffffffffffffffffffffffffffffffffffffff1673ffffffffffffffffffffffffffffffffffffffff168152602001908152602001600020546104e89190610d9a565b905060055481116104f857600080fd5b80600760003373ffffffffffffffffffffffffffffffffffffffff1673ffffffffffffffffffffffffffffffffffffffff1681526020019081526020016000208190555060076000600660009054906101000a900473ffffffffffffffffffffffffffffffffffffffff1673ffffffffffffffffffffffffffffffffffffffff1673ffffffffffffffffffffffffffffffffffffffff1681526020019081526020016000205481116106275761061c600854826105b59190610d9a565b60076000600660009054906101000a900473ffffffffffffffffffffffffffffffffffffffff1673ffffffffffffffffffffffffffffffffffffffff1673ffffffffffffffffffffffffffffffffffffffff16815260200190815260200160002054610aac565b6005819055506106e7565b61069f8160085460076000600660009054906101000a900473ffffffffffffffffffffffffffffffffffffffff1673ffffffffffffffffffffffffffffffffffffffff1673ffffffffffffffffffffffffffffffffffffffff1681526020019081526020016000205461069a9190610d9a565b610aac565b60058190555033600660006101000a81548173ffffffffffffffffffffffffffffffffffffffff021916908373ffffffffffffffffffffffffffffffffffffffff1602179055505b50565b60055481565b60038081111561070357610702610b8b565b5b600460009054906101000a900460ff16600381111561072557610724610b8b565b5b1480610732575060025443115b61073b57600080fd5b60008054906101000a900473ffffffffffffffffffffffffffffffffffffffff1673ffffffffffffffffffffffffffffffffffffffff163373ffffffffffffffffffffffffffffffffffffffff1614806107d457506000600760003373ffffffffffffffffffffffffffffffffffffffff1673ffffffffffffffffffffffffffffffffffffffff16815260200190815260200160002054115b6107dd57600080fd5b6000806003808111156107f3576107f2610b8b565b5b600460009054906101000a900460ff16600381111561081557610814610b8b565b5b0361086457339150600760003373ffffffffffffffffffffffffffffffffffffffff1673ffffffffffffffffffffffffffffffffffffffff168152602001908152602001600020549050610a1c565b60008054906101000a900473ffffffffffffffffffffffffffffffffffffffff1673ffffffffffffffffffffffffffffffffffffffff163373ffffffffffffffffffffffffffffffffffffffff16036108e45760008054906101000a900473ffffffffffffffffffffffffffffffffffffffff1691506005549050610a1b565b600660009054906101000a900473ffffffffffffffffffffffffffffffffffffffff1673ffffffffffffffffffffffffffffffffffffffff163373ffffffffffffffffffffffffffffffffffffffff16036109d457600660009054906101000a900473ffffffffffffffffffffffffffffffffffffffff16915060055460076000600660009054906101000a900473ffffffffffffffffffffffffffffffffffffffff1673ffffffffffffffffffffffffffffffffffffffff1673ffffffffffffffffffffffffffffffffffffffff168152602001908152602001600020546109cd9190610dce565b9050610a1a565b339150600760003373ffffffffffffffffffffffffffffffffffffffff1673ffffffffffffffffffffffffffffffffffffffff1681526020019081526020016000205490505b5b5b6000600760008473ffffffffffffffffffffffffffffffffffffffff1673ffffffffffffffffffffffffffffffffffffffff168152602001908152602001600020819055508173ffffffffffffffffffffffffffffffffffffffff166108fc829081150290604051600060405180830381858888f19350505050158015610aa7573d6000803e3d6000fd5b505050565b6000818311610abd57829050610ac1565b8190505b92915050565b6000819050919050565b610ada81610ac7565b82525050565b6000602082019050610af56000830184610ad1565b92915050565b600080fd5b600073ffffffffffffffffffffffffffffffffffffffff82169050919050565b6000610b2b82610b00565b9050919050565b610b3b81610b20565b8114610b4657600080fd5b50565b600081359050610b5881610b32565b92915050565b600060208284031215610b7457610b73610afb565b5b6000610b8284828501610b49565b91505092915050565b7f4e487b7100000000000000000000000000000000000000000000000000000000600052602160045260246000fd5b60048110610bcb57610bca610b8b565b5b50565b6000819050610bdc82610bba565b919050565b6000610bec82610bce565b9050919050565b610bfc81610be1565b82525050565b6000602082019050610c176000830184610bf3565b92915050565b6000610c2882610b00565b9050919050565b610c3881610c1d565b82525050565b6000602082019050610c536000830184610c2f565b92915050565b600081519050919050565b600082825260208201905092915050565b60005b83811015610c93578082015181840152602081019050610c78565b60008484015250505050565b6000601f19601f8301169050919050565b6000610cbb82610c59565b610cc58185610c64565b9350610cd5818560208601610c75565b610cde81610c9f565b840191505092915050565b60006020820190508181036000830152610d038184610cb0565b905092915050565b7f4e487b7100000000000000000000000000000000000000000000000000000000600052602260045260246000fd5b60006002820490506001821680610d5257607f821691505b602082108103610d6557610d64610d0b565b5b50919050565b7f4e487b7100000000000000000000000000000000000000000000000000000000600052601160045260246000fd5b6000610da582610ac7565b9150610db083610ac7565b9250828201905080821115610dc857610dc7610d6b565b5b92915050565b6000610dd982610ac7565b9150610de483610ac7565b9250828203905081811115610dfc57610dfb610d6b565b5b9291505056fea2646970667358221220ee7fab3780325837628c317d44c54fca49958507018ca35ddb8c40fd43c58fff64736f6c63430008120033",
					"opcodes": "PUSH1 0x80 PUSH1 0x40 MSTORE CALLVALUE DUP1 ISZERO PUSH3 0x11 JUMPI PUSH1 0x0 DUP1 REVERT JUMPDEST POP PUSH1 0x40 MLOAD PUSH3 0x13D7 CODESIZE SUB DUP1 PUSH3 0x13D7 DUP4 CODECOPY DUP2 DUP2 ADD PUSH1 0x40 MSTORE DUP2 ADD SWAP1 PUSH3 0x37 SWAP2 SWAP1 PUSH3 0x163 JUMP JUMPDEST DUP1 PUSH1 0x0 DUP1 PUSH2 0x100 EXP DUP2 SLOAD DUP2 PUSH20 0xFFFFFFFFFFFFFFFFFFFFFFFFFFFFFFFFFFFFFFFF MUL NOT AND SWAP1 DUP4 PUSH20 0xFFFFFFFFFFFFFFFFFFFFFFFFFFFFFFFFFFFFFFFF AND MUL OR SWAP1 SSTORE POP PUSH1 0x1 PUSH1 0x4 PUSH1 0x0 PUSH2 0x100 EXP DUP2 SLOAD DUP2 PUSH1 0xFF MUL NOT AND SWAP1 DUP4 PUSH1 0x3 DUP2 GT ISZERO PUSH3 0xA0 JUMPI PUSH3 0x9F PUSH3 0x195 JUMP JUMPDEST JUMPDEST MUL OR SWAP1 SSTORE POP NUMBER PUSH1 0x1 DUP2 SWAP1 SSTORE POP PUSH2 0x9D80 NUMBER PUSH3 0xBC SWAP2 SWAP1 PUSH3 0x1FD JUMP JUMPDEST PUSH1 0x2 DUP2 SWAP1 SSTORE POP PUSH1 0x40 MLOAD DUP1 PUSH1 0x20 ADD PUSH1 0x40 MSTORE DUP1 PUSH1 0x0 DUP2 MSTORE POP PUSH1 0x3 SWAP1 DUP2 PUSH3 0xE2 SWAP2 SWAP1 PUSH3 0x4A8 JUMP JUMPDEST POP PUSH8 0x16345785D8A0000 PUSH1 0x8 DUP2 SWAP1 SSTORE POP POP PUSH3 0x58F JUMP JUMPDEST PUSH1 0x0 DUP1 REVERT JUMPDEST PUSH1 0x0 PUSH20 0xFFFFFFFFFFFFFFFFFFFFFFFFFFFFFFFFFFFFFFFF DUP3 AND SWAP1 POP SWAP2 SWAP1 POP JUMP JUMPDEST PUSH1 0x0 PUSH3 0x12B DUP3 PUSH3 0xFE JUMP JUMPDEST SWAP1 POP SWAP2 SWAP1 POP JUMP JUMPDEST PUSH3 0x13D DUP2 PUSH3 0x11E JUMP JUMPDEST DUP2 EQ PUSH3 0x149 JUMPI PUSH1 0x0 DUP1 REVERT JUMPDEST POP JUMP JUMPDEST PUSH1 0x0 DUP2 MLOAD SWAP1 POP PUSH3 0x15D DUP2 PUSH3 0x132 JUMP JUMPDEST SWAP3 SWAP2 POP POP JUMP JUMPDEST PUSH1 0x0 PUSH1 0x20 DUP3 DUP5 SUB SLT ISZERO PUSH3 0x17C JUMPI PUSH3 0x17B PUSH3 0xF9 JUMP JUMPDEST JUMPDEST PUSH1 0x0 PUSH3 0x18C DUP5 DUP3 DUP6 ADD PUSH3 0x14C JUMP JUMPDEST SWAP2 POP POP SWAP3 SWAP2 POP POP JUMP JUMPDEST PUSH32 0x4E487B7100000000000000000000000000000000000000000000000000000000 PUSH1 0x0 MSTORE PUSH1 0x21 PUSH1 0x4 MSTORE PUSH1 0x24 PUSH1 0x0 REVERT JUMPDEST PUSH1 0x0 DUP2 SWAP1 POP SWAP2 SWAP1 POP JUMP JUMPDEST PUSH32 0x4E487B7100000000000000000000000000000000000000000000000000000000 PUSH1 0x0 MSTORE PUSH1 0x11 PUSH1 0x4 MSTORE PUSH1 0x24 PUSH1 0x0 REVERT JUMPDEST PUSH1 0x0 PUSH3 0x20A DUP3 PUSH3 0x1C4 JUMP JUMPDEST SWAP2 POP PUSH3 0x217 DUP4 PUSH3 0x1C4 JUMP JUMPDEST SWAP3 POP DUP3 DUP3 ADD SWAP1 POP DUP1 DUP3 GT ISZERO PUSH3 0x232 JUMPI PUSH3 0x231 PUSH3 0x1CE JUMP JUMPDEST JUMPDEST SWAP3 SWAP2 POP POP JUMP JUMPDEST PUSH1 0x0 DUP2 MLOAD SWAP1 POP SWAP2 SWAP1 POP JUMP JUMPDEST PUSH32 0x4E487B7100000000000000000000000000000000000000000000000000000000 PUSH1 0x0 MSTORE PUSH1 0x41 PUSH1 0x4 MSTORE PUSH1 0x24 PUSH1 0x0 REVERT JUMPDEST PUSH32 0x4E487B7100000000000000000000000000000000000000000000000000000000 PUSH1 0x0 MSTORE PUSH1 0x22 PUSH1 0x4 MSTORE PUSH1 0x24 PUSH1 0x0 REVERT JUMPDEST PUSH1 0x0 PUSH1 0x2 DUP3 DIV SWAP1 POP PUSH1 0x1 DUP3 AND DUP1 PUSH3 0x2BA JUMPI PUSH1 0x7F DUP3 AND SWAP2 POP JUMPDEST PUSH1 0x20 DUP3 LT DUP2 SUB PUSH3 0x2D0 JUMPI PUSH3 0x2CF PUSH3 0x272 JUMP JUMPDEST JUMPDEST POP SWAP2 SWAP1 POP JUMP JUMPDEST PUSH1 0x0 DUP2 SWAP1 POP DUP2 PUSH1 0x0 MSTORE PUSH1 0x20 PUSH1 0x0 KECCAK256 SWAP1 POP SWAP2 SWAP1 POP JUMP JUMPDEST PUSH1 0x0 PUSH1 0x20 PUSH1 0x1F DUP4 ADD DIV SWAP1 POP SWAP2 SWAP1 POP JUMP JUMPDEST PUSH1 0x0 DUP3 DUP3 SHL SWAP1 POP SWAP3 SWAP2 POP POP JUMP JUMPDEST PUSH1 0x0 PUSH1 0x8 DUP4 MUL PUSH3 0x33A PUSH32 0xFFFFFFFFFFFFFFFFFFFFFFFFFFFFFFFFFFFFFFFFFFFFFFFFFFFFFFFFFFFFFFFF DUP3 PUSH3 0x2FB JUMP JUMPDEST PUSH3 0x346 DUP7 DUP4 PUSH3 0x2FB JUMP JUMPDEST SWAP6 POP DUP1 NOT DUP5 AND SWAP4 POP DUP1 DUP7 AND DUP5 OR SWAP3 POP POP POP SWAP4 SWAP3 POP POP POP JUMP JUMPDEST PUSH1 0x0 DUP2 SWAP1 POP SWAP2 SWAP1 POP JUMP JUMPDEST PUSH1 0x0 PUSH3 0x389 PUSH3 0x383 PUSH3 0x37D DUP5 PUSH3 0x1C4 JUMP JUMPDEST PUSH3 0x35E JUMP JUMPDEST PUSH3 0x1C4 JUMP JUMPDEST SWAP1 POP SWAP2 SWAP1 POP JUMP JUMPDEST PUSH1 0x0 DUP2 SWAP1 POP SWAP2 SWAP1 POP JUMP JUMPDEST PUSH3 0x3A5 DUP4 PUSH3 0x368 JUMP JUMPDEST PUSH3 0x3BD PUSH3 0x3B4 DUP3 PUSH3 0x390 JUMP JUMPDEST DUP5 DUP5 SLOAD PUSH3 0x308 JUMP JUMPDEST DUP3 SSTORE POP POP POP POP JUMP JUMPDEST PUSH1 0x0 SWAP1 JUMP JUMPDEST PUSH3 0x3D4 PUSH3 0x3C5 JUMP JUMPDEST PUSH3 0x3E1 DUP2 DUP5 DUP5 PUSH3 0x39A JUMP JUMPDEST POP POP POP JUMP JUMPDEST JUMPDEST DUP2 DUP2 LT ISZERO PUSH3 0x409 JUMPI PUSH3 0x3FD PUSH1 0x0 DUP3 PUSH3 0x3CA JUMP JUMPDEST PUSH1 0x1 DUP2 ADD SWAP1 POP PUSH3 0x3E7 JUMP JUMPDEST POP POP JUMP JUMPDEST PUSH1 0x1F DUP3 GT ISZERO PUSH3 0x458 JUMPI PUSH3 0x422 DUP2 PUSH3 0x2D6 JUMP JUMPDEST PUSH3 0x42D DUP5 PUSH3 0x2EB JUMP JUMPDEST DUP2 ADD PUSH1 0x20 DUP6 LT ISZERO PUSH3 0x43D JUMPI DUP2 SWAP1 POP JUMPDEST PUSH3 0x455 PUSH3 0x44C DUP6 PUSH3 0x2EB JUMP JUMPDEST DUP4 ADD DUP3 PUSH3 0x3E6 JUMP JUMPDEST POP POP JUMPDEST POP POP POP JUMP JUMPDEST PUSH1 0x0 DUP3 DUP3 SHR SWAP1 POP SWAP3 SWAP2 POP POP JUMP JUMPDEST PUSH1 0x0 PUSH3 0x47D PUSH1 0x0 NOT DUP5 PUSH1 0x8 MUL PUSH3 0x45D JUMP JUMPDEST NOT DUP1 DUP4 AND SWAP2 POP POP SWAP3 SWAP2 POP POP JUMP JUMPDEST PUSH1 0x0 PUSH3 0x498 DUP4 DUP4 PUSH3 0x46A JUMP JUMPDEST SWAP2 POP DUP3 PUSH1 0x2 MUL DUP3 OR SWAP1 POP SWAP3 SWAP2 POP POP JUMP JUMPDEST PUSH3 0x4B3 DUP3 PUSH3 0x238 JUMP JUMPDEST PUSH8 0xFFFFFFFFFFFFFFFF DUP2 GT ISZERO PUSH3 0x4CF JUMPI PUSH3 0x4CE PUSH3 0x243 JUMP JUMPDEST JUMPDEST PUSH3 0x4DB DUP3 SLOAD PUSH3 0x2A1 JUMP JUMPDEST PUSH3 0x4E8 DUP3 DUP3 DUP6 PUSH3 0x40D JUMP JUMPDEST PUSH1 0x0 PUSH1 0x20 SWAP1 POP PUSH1 0x1F DUP4 GT PUSH1 0x1 DUP2 EQ PUSH3 0x520 JUMPI PUSH1 0x0 DUP5 ISZERO PUSH3 0x50B JUMPI DUP3 DUP8 ADD MLOAD SWAP1 POP JUMPDEST PUSH3 0x517 DUP6 DUP3 PUSH3 0x48A JUMP JUMPDEST DUP7 SSTORE POP PUSH3 0x587 JUMP JUMPDEST PUSH1 0x1F NOT DUP5 AND PUSH3 0x530 DUP7 PUSH3 0x2D6 JUMP JUMPDEST PUSH1 0x0 JUMPDEST DUP3 DUP2 LT ISZERO PUSH3 0x55A JUMPI DUP5 DUP10 ADD MLOAD DUP3 SSTORE PUSH1 0x1 DUP3 ADD SWAP2 POP PUSH1 0x20 DUP6 ADD SWAP5 POP PUSH1 0x20 DUP2 ADD SWAP1 POP PUSH3 0x533 JUMP JUMPDEST DUP7 DUP4 LT ISZERO PUSH3 0x57A JUMPI DUP5 DUP10 ADD MLOAD PUSH3 0x576 PUSH1 0x1F DUP10 AND DUP3 PUSH3 0x46A JUMP JUMPDEST DUP4 SSTORE POP JUMPDEST PUSH1 0x1 PUSH1 0x2 DUP9 MUL ADD DUP9 SSTORE POP POP POP JUMPDEST POP POP POP POP POP POP JUMP JUMPDEST PUSH2 0xE38 DUP1 PUSH3 0x59F PUSH1 0x0 CODECOPY PUSH1 0x0 RETURN INVALID PUSH1 0x80 PUSH1 0x40 MSTORE PUSH1 0x4 CALLDATASIZE LT PUSH2 0x9C JUMPI PUSH1 0x0 CALLDATALOAD PUSH1 0xE0 SHR DUP1 PUSH4 0x8FA8B790 GT PUSH2 0x64 JUMPI DUP1 PUSH4 0x8FA8B790 EQ PUSH2 0x18A JUMPI DUP1 PUSH4 0x91F90157 EQ PUSH2 0x1A1 JUMPI DUP1 PUSH4 0xC623674F EQ PUSH2 0x1CC JUMPI DUP1 PUSH4 0xECFC7ECC EQ PUSH2 0x1F7 JUMPI DUP1 PUSH4 0xF5B56C56 EQ PUSH2 0x201 JUMPI DUP1 PUSH4 0xF77282AB EQ PUSH2 0x22C JUMPI PUSH2 0x9C JUMP JUMPDEST DUP1 PUSH4 0x83C6323 EQ PUSH2 0xA1 JUMPI DUP1 PUSH4 0x48CD4CB1 EQ PUSH2 0xCC JUMPI DUP1 PUSH4 0x62EA82DB EQ PUSH2 0xF7 JUMPI DUP1 PUSH4 0x7FB45099 EQ PUSH2 0x134 JUMPI DUP1 PUSH4 0x8DA5CB5B EQ PUSH2 0x15F JUMPI JUMPDEST PUSH1 0x0 DUP1 REVERT JUMPDEST CALLVALUE DUP1 ISZERO PUSH2 0xAD JUMPI PUSH1 0x0 DUP1 REVERT JUMPDEST POP PUSH2 0xB6 PUSH2 0x243 JUMP JUMPDEST PUSH1 0x40 MLOAD PUSH2 0xC3 SWAP2 SWAP1 PUSH2 0xAE0 JUMP JUMPDEST PUSH1 0x40 MLOAD DUP1 SWAP2 SUB SWAP1 RETURN JUMPDEST CALLVALUE DUP1 ISZERO PUSH2 0xD8 JUMPI PUSH1 0x0 DUP1 REVERT JUMPDEST POP PUSH2 0xE1 PUSH2 0x249 JUMP JUMPDEST PUSH1 0x40 MLOAD PUSH2 0xEE SWAP2 SWAP1 PUSH2 0xAE0 JUMP JUMPDEST PUSH1 0x40 MLOAD DUP1 SWAP2 SUB SWAP1 RETURN JUMPDEST CALLVALUE DUP1 ISZERO PUSH2 0x103 JUMPI PUSH1 0x0 DUP1 REVERT JUMPDEST POP PUSH2 0x11E PUSH1 0x4 DUP1 CALLDATASIZE SUB DUP2 ADD SWAP1 PUSH2 0x119 SWAP2 SWAP1 PUSH2 0xB5E JUMP JUMPDEST PUSH2 0x24F JUMP JUMPDEST PUSH1 0x40 MLOAD PUSH2 0x12B SWAP2 SWAP1 PUSH2 0xAE0 JUMP JUMPDEST PUSH1 0x40 MLOAD DUP1 SWAP2 SUB SWAP1 RETURN JUMPDEST CALLVALUE DUP1 ISZERO PUSH2 0x140 JUMPI PUSH1 0x0 DUP1 REVERT JUMPDEST POP PUSH2 0x149 PUSH2 0x267 JUMP JUMPDEST PUSH1 0x40 MLOAD PUSH2 0x156 SWAP2 SWAP1 PUSH2 0xC02 JUMP JUMPDEST PUSH1 0x40 MLOAD DUP1 SWAP2 SUB SWAP1 RETURN JUMPDEST CALLVALUE DUP1 ISZERO PUSH2 0x16B JUMPI PUSH1 0x0 DUP1 REVERT JUMPDEST POP PUSH2 0x174 PUSH2 0x27A JUMP JUMPDEST PUSH1 0x40 MLOAD PUSH2 0x181 SWAP2 SWAP1 PUSH2 0xC3E JUMP JUMPDEST PUSH1 0x40 MLOAD DUP1 SWAP2 SUB SWAP1 RETURN JUMPDEST CALLVALUE DUP1 ISZERO PUSH2 0x196 JUMPI PUSH1 0x0 DUP1 REVERT JUMPDEST POP PUSH2 0x19F PUSH2 0x29E JUMP JUMPDEST STOP JUMPDEST CALLVALUE DUP1 ISZERO PUSH2 0x1AD JUMPI PUSH1 0x0 DUP1 REVERT JUMPDEST POP PUSH2 0x1B6 PUSH2 0x323 JUMP JUMPDEST PUSH1 0x40 MLOAD PUSH2 0x1C3 SWAP2 SWAP1 PUSH2 0xC3E JUMP JUMPDEST PUSH1 0x40 MLOAD DUP1 SWAP2 SUB SWAP1 RETURN JUMPDEST CALLVALUE DUP1 ISZERO PUSH2 0x1D8 JUMPI PUSH1 0x0 DUP1 REVERT JUMPDEST POP PUSH2 0x1E1 PUSH2 0x349 JUMP JUMPDEST PUSH1 0x40 MLOAD PUSH2 0x1EE SWAP2 SWAP1 PUSH2 0xCE9 JUMP JUMPDEST PUSH1 0x40 MLOAD DUP1 SWAP2 SUB SWAP1 RETURN JUMPDEST PUSH2 0x1FF PUSH2 0x3D7 JUMP JUMPDEST STOP JUMPDEST CALLVALUE DUP1 ISZERO PUSH2 0x20D JUMPI PUSH1 0x0 DUP1 REVERT JUMPDEST POP PUSH2 0x216 PUSH2 0x6EA JUMP JUMPDEST PUSH1 0x40 MLOAD PUSH2 0x223 SWAP2 SWAP1 PUSH2 0xAE0 JUMP JUMPDEST PUSH1 0x40 MLOAD DUP1 SWAP2 SUB SWAP1 RETURN JUMPDEST CALLVALUE DUP1 ISZERO PUSH2 0x238 JUMPI PUSH1 0x0 DUP1 REVERT JUMPDEST POP PUSH2 0x241 PUSH2 0x6F0 JUMP JUMPDEST STOP JUMPDEST PUSH1 0x2 SLOAD DUP2 JUMP JUMPDEST PUSH1 0x1 SLOAD DUP2 JUMP JUMPDEST PUSH1 0x7 PUSH1 0x20 MSTORE DUP1 PUSH1 0x0 MSTORE PUSH1 0x40 PUSH1 0x0 KECCAK256 PUSH1 0x0 SWAP2 POP SWAP1 POP SLOAD DUP2 JUMP JUMPDEST PUSH1 0x4 PUSH1 0x0 SWAP1 SLOAD SWAP1 PUSH2 0x100 EXP SWAP1 DIV PUSH1 0xFF AND DUP2 JUMP JUMPDEST PUSH1 0x0 DUP1 SLOAD SWAP1 PUSH2 0x100 EXP SWAP1 DIV PUSH20 0xFFFFFFFFFFFFFFFFFFFFFFFFFFFFFFFFFFFFFFFF AND DUP2 JUMP JUMPDEST PUSH1 0x0 DUP1 SLOAD SWAP1 PUSH2 0x100 EXP SWAP1 DIV PUSH20 0xFFFFFFFFFFFFFFFFFFFFFFFFFFFFFFFFFFFFFFFF AND PUSH20 0xFFFFFFFFFFFFFFFFFFFFFFFFFFFFFFFFFFFFFFFF AND CALLER PUSH20 0xFFFFFFFFFFFFFFFFFFFFFFFFFFFFFFFFFFFFFFFF AND EQ PUSH2 0x2F6 JUMPI PUSH1 0x0 DUP1 REVERT JUMPDEST PUSH1 0x3 PUSH1 0x4 PUSH1 0x0 PUSH2 0x100 EXP DUP2 SLOAD DUP2 PUSH1 0xFF MUL NOT AND SWAP1 DUP4 PUSH1 0x3 DUP2 GT ISZERO PUSH2 0x31C JUMPI PUSH2 0x31B PUSH2 0xB8B JUMP JUMPDEST JUMPDEST MUL OR SWAP1 SSTORE POP JUMP JUMPDEST PUSH1 0x6 PUSH1 0x0 SWAP1 SLOAD SWAP1 PUSH2 0x100 EXP SWAP1 DIV PUSH20 0xFFFFFFFFFFFFFFFFFFFFFFFFFFFFFFFFFFFFFFFF AND DUP2 JUMP JUMPDEST PUSH1 0x3 DUP1 SLOAD PUSH2 0x356 SWAP1 PUSH2 0xD3A JUMP JUMPDEST DUP1 PUSH1 0x1F ADD PUSH1 0x20 DUP1 SWAP2 DIV MUL PUSH1 0x20 ADD PUSH1 0x40 MLOAD SWAP1 DUP2 ADD PUSH1 0x40 MSTORE DUP1 SWAP3 SWAP2 SWAP1 DUP2 DUP2 MSTORE PUSH1 0x20 ADD DUP3 DUP1 SLOAD PUSH2 0x382 SWAP1 PUSH2 0xD3A JUMP JUMPDEST DUP1 ISZERO PUSH2 0x3CF JUMPI DUP1 PUSH1 0x1F LT PUSH2 0x3A4 JUMPI PUSH2 0x100 DUP1 DUP4 SLOAD DIV MUL DUP4 MSTORE SWAP2 PUSH1 0x20 ADD SWAP2 PUSH2 0x3CF JUMP JUMPDEST DUP3 ADD SWAP2 SWAP1 PUSH1 0x0 MSTORE PUSH1 0x20 PUSH1 0x0 KECCAK256 SWAP1 JUMPDEST DUP2 SLOAD DUP2 MSTORE SWAP1 PUSH1 0x1 ADD SWAP1 PUSH1 0x20 ADD DUP1 DUP4 GT PUSH2 0x3B2 JUMPI DUP3 SWAP1 SUB PUSH1 0x1F AND DUP3 ADD SWAP2 JUMPDEST POP POP POP POP POP DUP2 JUMP JUMPDEST PUSH1 0x0 DUP1 SLOAD SWAP1 PUSH2 0x100 EXP SWAP1 DIV PUSH20 0xFFFFFFFFFFFFFFFFFFFFFFFFFFFFFFFFFFFFFFFF AND PUSH20 0xFFFFFFFFFFFFFFFFFFFFFFFFFFFFFFFFFFFFFFFF AND CALLER PUSH20 0xFFFFFFFFFFFFFFFFFFFFFFFFFFFFFFFFFFFFFFFF AND SUB PUSH2 0x42F JUMPI PUSH1 0x0 DUP1 REVERT JUMPDEST PUSH1 0x1 SLOAD NUMBER LT ISZERO PUSH2 0x43E JUMPI PUSH1 0x0 DUP1 REVERT JUMPDEST PUSH1 0x2 SLOAD NUMBER GT ISZERO PUSH2 0x44D JUMPI PUSH1 0x0 DUP1 REVERT JUMPDEST PUSH1 0x1 PUSH1 0x3 DUP2 GT ISZERO PUSH2 0x461 JUMPI PUSH2 0x460 PUSH2 0xB8B JUMP JUMPDEST JUMPDEST PUSH1 0x4 PUSH1 0x0 SWAP1 SLOAD SWAP1 PUSH2 0x100 EXP SWAP1 DIV PUSH1 0xFF AND PUSH1 0x3 DUP2 GT ISZERO PUSH2 0x483 JUMPI PUSH2 0x482 PUSH2 0xB8B JUMP JUMPDEST JUMPDEST EQ PUSH2 0x48D JUMPI PUSH1 0x0 DUP1 REVERT JUMPDEST PUSH1 0x64 CALLVALUE LT ISZERO PUSH2 0x49B JUMPI PUSH1 0x0 DUP1 REVERT JUMPDEST PUSH1 0x0 CALLVALUE PUSH1 0x7 PUSH1 0x0 CALLER PUSH20 0xFFFFFFFFFFFFFFFFFFFFFFFFFFFFFFFFFFFFFFFF AND PUSH20 0xFFFFFFFFFFFFFFFFFFFFFFFFFFFFFFFFFFFFFFFF AND DUP2 MSTORE PUSH1 0x20 ADD SWAP1 DUP2 MSTORE PUSH1 0x20 ADD PUSH1 0x0 KECCAK256 SLOAD PUSH2 0x4E8 SWAP2 SWAP1 PUSH2 0xD9A JUMP JUMPDEST SWAP1 POP PUSH1 0x5 SLOAD DUP2 GT PUSH2 0x4F8 JUMPI PUSH1 0x0 DUP1 REVERT JUMPDEST DUP1 PUSH1 0x7 PUSH1 0x0 CALLER PUSH20 0xFFFFFFFFFFFFFFFFFFFFFFFFFFFFFFFFFFFFFFFF AND PUSH20 0xFFFFFFFFFFFFFFFFFFFFFFFFFFFFFFFFFFFFFFFF AND DUP2 MSTORE PUSH1 0x20 ADD SWAP1 DUP2 MSTORE PUSH1 0x20 ADD PUSH1 0x0 KECCAK256 DUP2 SWAP1 SSTORE POP PUSH1 0x7 PUSH1 0x0 PUSH1 0x6 PUSH1 0x0 SWAP1 SLOAD SWAP1 PUSH2 0x100 EXP SWAP1 DIV PUSH20 0xFFFFFFFFFFFFFFFFFFFFFFFFFFFFFFFFFFFFFFFF AND PUSH20 0xFFFFFFFFFFFFFFFFFFFFFFFFFFFFFFFFFFFFFFFF AND PUSH20 0xFFFFFFFFFFFFFFFFFFFFFFFFFFFFFFFFFFFFFFFF AND DUP2 MSTORE PUSH1 0x20 ADD SWAP1 DUP2 MSTORE PUSH1 0x20 ADD PUSH1 0x0 KECCAK256 SLOAD DUP2 GT PUSH2 0x627 JUMPI PUSH2 0x61C PUSH1 0x8 SLOAD DUP3 PUSH2 0x5B5 SWAP2 SWAP1 PUSH2 0xD9A JUMP JUMPDEST PUSH1 0x7 PUSH1 0x0 PUSH1 0x6 PUSH1 0x0 SWAP1 SLOAD SWAP1 PUSH2 0x100 EXP SWAP1 DIV PUSH20 0xFFFFFFFFFFFFFFFFFFFFFFFFFFFFFFFFFFFFFFFF AND PUSH20 0xFFFFFFFFFFFFFFFFFFFFFFFFFFFFFFFFFFFFFFFF AND PUSH20 0xFFFFFFFFFFFFFFFFFFFFFFFFFFFFFFFFFFFFFFFF AND DUP2 MSTORE PUSH1 0x20 ADD SWAP1 DUP2 MSTORE PUSH1 0x20 ADD PUSH1 0x0 KECCAK256 SLOAD PUSH2 0xAAC JUMP JUMPDEST PUSH1 0x5 DUP2 SWAP1 SSTORE POP PUSH2 0x6E7 JUMP JUMPDEST PUSH2 0x69F DUP2 PUSH1 0x8 SLOAD PUSH1 0x7 PUSH1 0x0 PUSH1 0x6 PUSH1 0x0 SWAP1 SLOAD SWAP1 PUSH2 0x100 EXP SWAP1 DIV PUSH20 0xFFFFFFFFFFFFFFFFFFFFFFFFFFFFFFFFFFFFFFFF AND PUSH20 0xFFFFFFFFFFFFFFFFFFFFFFFFFFFFFFFFFFFFFFFF AND PUSH20 0xFFFFFFFFFFFFFFFFFFFFFFFFFFFFFFFFFFFFFFFF AND DUP2 MSTORE PUSH1 0x20 ADD SWAP1 DUP2 MSTORE PUSH1 0x20 ADD PUSH1 0x0 KECCAK256 SLOAD PUSH2 0x69A SWAP2 SWAP1 PUSH2 0xD9A JUMP JUMPDEST PUSH2 0xAAC JUMP JUMPDEST PUSH1 0x5 DUP2 SWAP1 SSTORE POP CALLER PUSH1 0x6 PUSH1 0x0 PUSH2 0x100 EXP DUP2 SLOAD DUP2 PUSH20 0xFFFFFFFFFFFFFFFFFFFFFFFFFFFFFFFFFFFFFFFF MUL NOT AND SWAP1 DUP4 PUSH20 0xFFFFFFFFFFFFFFFFFFFFFFFFFFFFFFFFFFFFFFFF AND MUL OR SWAP1 SSTORE POP JUMPDEST POP JUMP JUMPDEST PUSH1 0x5 SLOAD DUP2 JUMP JUMPDEST PUSH1 0x3 DUP1 DUP2 GT ISZERO PUSH2 0x703 JUMPI PUSH2 0x702 PUSH2 0xB8B JUMP JUMPDEST JUMPDEST PUSH1 0x4 PUSH1 0x0 SWAP1 SLOAD SWAP1 PUSH2 0x100 EXP SWAP1 DIV PUSH1 0xFF AND PUSH1 0x3 DUP2 GT ISZERO PUSH2 0x725 JUMPI PUSH2 0x724 PUSH2 0xB8B JUMP JUMPDEST JUMPDEST EQ DUP1 PUSH2 0x732 JUMPI POP PUSH1 0x2 SLOAD NUMBER GT JUMPDEST PUSH2 0x73B JUMPI PUSH1 0x0 DUP1 REVERT JUMPDEST PUSH1 0x0 DUP1 SLOAD SWAP1 PUSH2 0x100 EXP SWAP1 DIV PUSH20 0xFFFFFFFFFFFFFFFFFFFFFFFFFFFFFFFFFFFFFFFF AND PUSH20 0xFFFFFFFFFFFFFFFFFFFFFFFFFFFFFFFFFFFFFFFF AND CALLER PUSH20 0xFFFFFFFFFFFFFFFFFFFFFFFFFFFFFFFFFFFFFFFF AND EQ DUP1 PUSH2 0x7D4 JUMPI POP PUSH1 0x0 PUSH1 0x7 PUSH1 0x0 CALLER PUSH20 0xFFFFFFFFFFFFFFFFFFFFFFFFFFFFFFFFFFFFFFFF AND PUSH20 0xFFFFFFFFFFFFFFFFFFFFFFFFFFFFFFFFFFFFFFFF AND DUP2 MSTORE PUSH1 0x20 ADD SWAP1 DUP2 MSTORE PUSH1 0x20 ADD PUSH1 0x0 KECCAK256 SLOAD GT JUMPDEST PUSH2 0x7DD JUMPI PUSH1 0x0 DUP1 REVERT JUMPDEST PUSH1 0x0 DUP1 PUSH1 0x3 DUP1 DUP2 GT ISZERO PUSH2 0x7F3 JUMPI PUSH2 0x7F2 PUSH2 0xB8B JUMP JUMPDEST JUMPDEST PUSH1 0x4 PUSH1 0x0 SWAP1 SLOAD SWAP1 PUSH2 0x100 EXP SWAP1 DIV PUSH1 0xFF AND PUSH1 0x3 DUP2 GT ISZERO PUSH2 0x815 JUMPI PUSH2 0x814 PUSH2 0xB8B JUMP JUMPDEST JUMPDEST SUB PUSH2 0x864 JUMPI CALLER SWAP2 POP PUSH1 0x7 PUSH1 0x0 CALLER PUSH20 0xFFFFFFFFFFFFFFFFFFFFFFFFFFFFFFFFFFFFFFFF AND PUSH20 0xFFFFFFFFFFFFFFFFFFFFFFFFFFFFFFFFFFFFFFFF AND DUP2 MSTORE PUSH1 0x20 ADD SWAP1 DUP2 MSTORE PUSH1 0x20 ADD PUSH1 0x0 KECCAK256 SLOAD SWAP1 POP PUSH2 0xA1C JUMP JUMPDEST PUSH1 0x0 DUP1 SLOAD SWAP1 PUSH2 0x100 EXP SWAP1 DIV PUSH20 0xFFFFFFFFFFFFFFFFFFFFFFFFFFFFFFFFFFFFFFFF AND PUSH20 0xFFFFFFFFFFFFFFFFFFFFFFFFFFFFFFFFFFFFFFFF AND CALLER PUSH20 0xFFFFFFFFFFFFFFFFFFFFFFFFFFFFFFFFFFFFFFFF AND SUB PUSH2 0x8E4 JUMPI PUSH1 0x0 DUP1 SLOAD SWAP1 PUSH2 0x100 EXP SWAP1 DIV PUSH20 0xFFFFFFFFFFFFFFFFFFFFFFFFFFFFFFFFFFFFFFFF AND SWAP2 POP PUSH1 0x5 SLOAD SWAP1 POP PUSH2 0xA1B JUMP JUMPDEST PUSH1 0x6 PUSH1 0x0 SWAP1 SLOAD SWAP1 PUSH2 0x100 EXP SWAP1 DIV PUSH20 0xFFFFFFFFFFFFFFFFFFFFFFFFFFFFFFFFFFFFFFFF AND PUSH20 0xFFFFFFFFFFFFFFFFFFFFFFFFFFFFFFFFFFFFFFFF AND CALLER PUSH20 0xFFFFFFFFFFFFFFFFFFFFFFFFFFFFFFFFFFFFFFFF AND SUB PUSH2 0x9D4 JUMPI PUSH1 0x6 PUSH1 0x0 SWAP1 SLOAD SWAP1 PUSH2 0x100 EXP SWAP1 DIV PUSH20 0xFFFFFFFFFFFFFFFFFFFFFFFFFFFFFFFFFFFFFFFF AND SWAP2 POP PUSH1 0x5 SLOAD PUSH1 0x7 PUSH1 0x0 PUSH1 0x6 PUSH1 0x0 SWAP1 SLOAD SWAP1 PUSH2 0x100 EXP SWAP1 DIV PUSH20 0xFFFFFFFFFFFFFFFFFFFFFFFFFFFFFFFFFFFFFFFF AND PUSH20 0xFFFFFFFFFFFFFFFFFFFFFFFFFFFFFFFFFFFFFFFF AND PUSH20 0xFFFFFFFFFFFFFFFFFFFFFFFFFFFFFFFFFFFFFFFF AND DUP2 MSTORE PUSH1 0x20 ADD SWAP1 DUP2 MSTORE PUSH1 0x20 ADD PUSH1 0x0 KECCAK256 SLOAD PUSH2 0x9CD SWAP2 SWAP1 PUSH2 0xDCE JUMP JUMPDEST SWAP1 POP PUSH2 0xA1A JUMP JUMPDEST CALLER SWAP2 POP PUSH1 0x7 PUSH1 0x0 CALLER PUSH20 0xFFFFFFFFFFFFFFFFFFFFFFFFFFFFFFFFFFFFFFFF AND PUSH20 0xFFFFFFFFFFFFFFFFFFFFFFFFFFFFFFFFFFFFFFFF AND DUP2 MSTORE PUSH1 0x20 ADD SWAP1 DUP2 MSTORE PUSH1 0x20 ADD PUSH1 0x0 KECCAK256 SLOAD SWAP1 POP JUMPDEST JUMPDEST JUMPDEST PUSH1 0x0 PUSH1 0x7 PUSH1 0x0 DUP5 PUSH20 0xFFFFFFFFFFFFFFFFFFFFFFFFFFFFFFFFFFFFFFFF AND PUSH20 0xFFFFFFFFFFFFFFFFFFFFFFFFFFFFFFFFFFFFFFFF AND DUP2 MSTORE PUSH1 0x20 ADD SWAP1 DUP2 MSTORE PUSH1 0x20 ADD PUSH1 0x0 KECCAK256 DUP2 SWAP1 SSTORE POP DUP2 PUSH20 0xFFFFFFFFFFFFFFFFFFFFFFFFFFFFFFFFFFFFFFFF AND PUSH2 0x8FC DUP3 SWAP1 DUP2 ISZERO MUL SWAP1 PUSH1 0x40 MLOAD PUSH1 0x0 PUSH1 0x40 MLOAD DUP1 DUP4 SUB DUP2 DUP6 DUP9 DUP9 CALL SWAP4 POP POP POP POP ISZERO DUP1 ISZERO PUSH2 0xAA7 JUMPI RETURNDATASIZE PUSH1 0x0 DUP1 RETURNDATACOPY RETURNDATASIZE PUSH1 0x0 REVERT JUMPDEST POP POP POP JUMP JUMPDEST PUSH1 0x0 DUP2 DUP4 GT PUSH2 0xABD JUMPI DUP3 SWAP1 POP PUSH2 0xAC1 JUMP JUMPDEST DUP2 SWAP1 POP JUMPDEST SWAP3 SWAP2 POP POP JUMP JUMPDEST PUSH1 0x0 DUP2 SWAP1 POP SWAP2 SWAP1 POP JUMP JUMPDEST PUSH2 0xADA DUP2 PUSH2 0xAC7 JUMP JUMPDEST DUP3 MSTORE POP POP JUMP JUMPDEST PUSH1 0x0 PUSH1 0x20 DUP3 ADD SWAP1 POP PUSH2 0xAF5 PUSH1 0x0 DUP4 ADD DUP5 PUSH2 0xAD1 JUMP JUMPDEST SWAP3 SWAP2 POP POP JUMP JUMPDEST PUSH1 0x0 DUP1 REVERT JUMPDEST PUSH1 0x0 PUSH20 0xFFFFFFFFFFFFFFFFFFFFFFFFFFFFFFFFFFFFFFFF DUP3 AND SWAP1 POP SWAP2 SWAP1 POP JUMP JUMPDEST PUSH1 0x0 PUSH2 0xB2B DUP3 PUSH2 0xB00 JUMP JUMPDEST SWAP1 POP SWAP2 SWAP1 POP JUMP JUMPDEST PUSH2 0xB3B DUP2 PUSH2 0xB20 JUMP JUMPDEST DUP2 EQ PUSH2 0xB46 JUMPI PUSH1 0x0 DUP1 REVERT JUMPDEST POP JUMP JUMPDEST PUSH1 0x0 DUP2 CALLDATALOAD SWAP1 POP PUSH2 0xB58 DUP2 PUSH2 0xB32 JUMP JUMPDEST SWAP3 SWAP2 POP POP JUMP JUMPDEST PUSH1 0x0 PUSH1 0x20 DUP3 DUP5 SUB SLT ISZERO PUSH2 0xB74 JUMPI PUSH2 0xB73 PUSH2 0xAFB JUMP JUMPDEST JUMPDEST PUSH1 0x0 PUSH2 0xB82 DUP5 DUP3 DUP6 ADD PUSH2 0xB49 JUMP JUMPDEST SWAP2 POP POP SWAP3 SWAP2 POP POP JUMP JUMPDEST PUSH32 0x4E487B7100000000000000000000000000000000000000000000000000000000 PUSH1 0x0 MSTORE PUSH1 0x21 PUSH1 0x4 MSTORE PUSH1 0x24 PUSH1 0x0 REVERT JUMPDEST PUSH1 0x4 DUP2 LT PUSH2 0xBCB JUMPI PUSH2 0xBCA PUSH2 0xB8B JUMP JUMPDEST JUMPDEST POP JUMP JUMPDEST PUSH1 0x0 DUP2 SWAP1 POP PUSH2 0xBDC DUP3 PUSH2 0xBBA JUMP JUMPDEST SWAP2 SWAP1 POP JUMP JUMPDEST PUSH1 0x0 PUSH2 0xBEC DUP3 PUSH2 0xBCE JUMP JUMPDEST SWAP1 POP SWAP2 SWAP1 POP JUMP JUMPDEST PUSH2 0xBFC DUP2 PUSH2 0xBE1 JUMP JUMPDEST DUP3 MSTORE POP POP JUMP JUMPDEST PUSH1 0x0 PUSH1 0x20 DUP3 ADD SWAP1 POP PUSH2 0xC17 PUSH1 0x0 DUP4 ADD DUP5 PUSH2 0xBF3 JUMP JUMPDEST SWAP3 SWAP2 POP POP JUMP JUMPDEST PUSH1 0x0 PUSH2 0xC28 DUP3 PUSH2 0xB00 JUMP JUMPDEST SWAP1 POP SWAP2 SWAP1 POP JUMP JUMPDEST PUSH2 0xC38 DUP2 PUSH2 0xC1D JUMP JUMPDEST DUP3 MSTORE POP POP JUMP JUMPDEST PUSH1 0x0 PUSH1 0x20 DUP3 ADD SWAP1 POP PUSH2 0xC53 PUSH1 0x0 DUP4 ADD DUP5 PUSH2 0xC2F JUMP JUMPDEST SWAP3 SWAP2 POP POP JUMP JUMPDEST PUSH1 0x0 DUP2 MLOAD SWAP1 POP SWAP2 SWAP1 POP JUMP JUMPDEST PUSH1 0x0 DUP3 DUP3 MSTORE PUSH1 0x20 DUP3 ADD SWAP1 POP SWAP3 SWAP2 POP POP JUMP JUMPDEST PUSH1 0x0 JUMPDEST DUP4 DUP2 LT ISZERO PUSH2 0xC93 JUMPI DUP1 DUP3 ADD MLOAD DUP2 DUP5 ADD MSTORE PUSH1 0x20 DUP2 ADD SWAP1 POP PUSH2 0xC78 JUMP JUMPDEST PUSH1 0x0 DUP5 DUP5 ADD MSTORE POP POP POP POP JUMP JUMPDEST PUSH1 0x0 PUSH1 0x1F NOT PUSH1 0x1F DUP4 ADD AND SWAP1 POP SWAP2 SWAP1 POP JUMP JUMPDEST PUSH1 0x0 PUSH2 0xCBB DUP3 PUSH2 0xC59 JUMP JUMPDEST PUSH2 0xCC5 DUP2 DUP6 PUSH2 0xC64 JUMP JUMPDEST SWAP4 POP PUSH2 0xCD5 DUP2 DUP6 PUSH1 0x20 DUP7 ADD PUSH2 0xC75 JUMP JUMPDEST PUSH2 0xCDE DUP2 PUSH2 0xC9F JUMP JUMPDEST DUP5 ADD SWAP2 POP POP SWAP3 SWAP2 POP POP JUMP JUMPDEST PUSH1 0x0 PUSH1 0x20 DUP3 ADD SWAP1 POP DUP2 DUP2 SUB PUSH1 0x0 DUP4 ADD MSTORE PUSH2 0xD03 DUP2 DUP5 PUSH2 0xCB0 JUMP JUMPDEST SWAP1 POP SWAP3 SWAP2 POP POP JUMP JUMPDEST PUSH32 0x4E487B7100000000000000000000000000000000000000000000000000000000 PUSH1 0x0 MSTORE PUSH1 0x22 PUSH1 0x4 MSTORE PUSH1 0x24 PUSH1 0x0 REVERT JUMPDEST PUSH1 0x0 PUSH1 0x2 DUP3 DIV SWAP1 POP PUSH1 0x1 DUP3 AND DUP1 PUSH2 0xD52 JUMPI PUSH1 0x7F DUP3 AND SWAP2 POP JUMPDEST PUSH1 0x20 DUP3 LT DUP2 SUB PUSH2 0xD65 JUMPI PUSH2 0xD64 PUSH2 0xD0B JUMP JUMPDEST JUMPDEST POP SWAP2 SWAP1 POP JUMP JUMPDEST PUSH32 0x4E487B7100000000000000000000000000000000000000000000000000000000 PUSH1 0x0 MSTORE PUSH1 0x11 PUSH1 0x4 MSTORE PUSH1 0x24 PUSH1 0x0 REVERT JUMPDEST PUSH1 0x0 PUSH2 0xDA5 DUP3 PUSH2 0xAC7 JUMP JUMPDEST SWAP2 POP PUSH2 0xDB0 DUP4 PUSH2 0xAC7 JUMP JUMPDEST SWAP3 POP DUP3 DUP3 ADD SWAP1 POP DUP1 DUP3 GT ISZERO PUSH2 0xDC8 JUMPI PUSH2 0xDC7 PUSH2 0xD6B JUMP JUMPDEST JUMPDEST SWAP3 SWAP2 POP POP JUMP JUMPDEST PUSH1 0x0 PUSH2 0xDD9 DUP3 PUSH2 0xAC7 JUMP JUMPDEST SWAP2 POP PUSH2 0xDE4 DUP4 PUSH2 0xAC7 JUMP JUMPDEST SWAP3 POP DUP3 DUP3 SUB SWAP1 POP DUP2 DUP2 GT ISZERO PUSH2 0xDFC JUMPI PUSH2 0xDFB PUSH2 0xD6B JUMP JUMPDEST JUMPDEST SWAP3 SWAP2 POP POP JUMP INVALID LOG2 PUSH5 0x6970667358 0x22 SLT KECCAK256 0xEE PUSH32 0xAB3780325837628C317D44C54FCA49958507018CA35DDB8C40FD43C58FFF6473 PUSH16 0x6C634300081200330000000000000000 "
				},
				"gasEstimates": {
					"creation": {
						"codeDepositCost": "728000",
						"executionCost": "infinite",
						"totalCost": "infinite"
					},
					"external": {
						"auctionState()": "2627",
						"bids(address)": "2859",
						"cancelAuction()": "26598",
						"endBlock()": "2430",
						"finalizeAuction()": "infinite",
						"highestBidder()": "2536",
						"highestBindingBid()": "2517",
						"ipfsHash()": "infinite",
						"owner()": "2600",
						"placeBid()": "infinite",
						"startBlock()": "2452"
					},
					"internal": {
						"min(uint256,uint256)": "64"
					}
				},
				"methodIdentifiers": {
					"auctionState()": "7fb45099",
					"bids(address)": "62ea82db",
					"cancelAuction()": "8fa8b790",
					"endBlock()": "083c6323",
					"finalizeAuction()": "f77282ab",
					"highestBidder()": "91f90157",
					"highestBindingBid()": "f5b56c56",
					"ipfsHash()": "c623674f",
					"owner()": "8da5cb5b",
					"placeBid()": "ecfc7ecc",
					"startBlock()": "48cd4cb1"
				}
			},
			"storageLayout": {
				"storage": [
					{
						"astId": 28,
						"contract": "contracts/andrei/projects/auction.sol:Auction",
						"label": "owner",
						"offset": 0,
						"slot": "0",
						"type": "t_address_payable"
					},
					{
						"astId": 30,
						"contract": "contracts/andrei/projects/auction.sol:Auction",
						"label": "startBlock",
						"offset": 0,
						"slot": "1",
						"type": "t_uint256"
					},
					{
						"astId": 32,
						"contract": "contracts/andrei/projects/auction.sol:Auction",
						"label": "endBlock",
						"offset": 0,
						"slot": "2",
						"type": "t_uint256"
					},
					{
						"astId": 34,
						"contract": "contracts/andrei/projects/auction.sol:Auction",
						"label": "ipfsHash",
						"offset": 0,
						"slot": "3",
						"type": "t_string_storage"
					},
					{
						"astId": 42,
						"contract": "contracts/andrei/projects/auction.sol:Auction",
						"label": "auctionState",
						"offset": 0,
						"slot": "4",
						"type": "t_enum(State)39"
					},
					{
						"astId": 44,
						"contract": "contracts/andrei/projects/auction.sol:Auction",
						"label": "highestBindingBid",
						"offset": 0,
						"slot": "5",
						"type": "t_uint256"
					},
					{
						"astId": 46,
						"contract": "contracts/andrei/projects/auction.sol:Auction",
						"label": "highestBidder",
						"offset": 0,
						"slot": "6",
						"type": "t_address_payable"
					},
					{
						"astId": 50,
						"contract": "contracts/andrei/projects/auction.sol:Auction",
						"label": "bids",
						"offset": 0,
						"slot": "7",
						"type": "t_mapping(t_address,t_uint256)"
					},
					{
						"astId": 52,
						"contract": "contracts/andrei/projects/auction.sol:Auction",
						"label": "bidIncrement",
						"offset": 0,
						"slot": "8",
						"type": "t_uint256"
					}
				],
				"types": {
					"t_address": {
						"encoding": "inplace",
						"label": "address",
						"numberOfBytes": "20"
					},
					"t_address_payable": {
						"encoding": "inplace",
						"label": "address payable",
						"numberOfBytes": "20"
					},
					"t_enum(State)39": {
						"encoding": "inplace",
						"label": "enum Auction.State",
						"numberOfBytes": "1"
					},
					"t_mapping(t_address,t_uint256)": {
						"encoding": "mapping",
						"key": "t_address",
						"label": "mapping(address => uint256)",
						"numberOfBytes": "32",
						"value": "t_uint256"
					},
					"t_string_storage": {
						"encoding": "bytes",
						"label": "string",
						"numberOfBytes": "32"
					},
					"t_uint256": {
						"encoding": "inplace",
						"label": "uint256",
						"numberOfBytes": "32"
					}
				}
			},
			"userdoc": {
				"kind": "user",
				"methods": {},
				"version": 1
			}
		}
	}
}